{
  "_format": "hh-sol-artifact-1",
  "contractName": "chainHousing",
  "sourceName": "src/backend/contracts/chainHousing.sol",
  "abi": [
    {
      "inputs": [],
      "stateMutability": "nonpayable",
      "type": "constructor"
    },
    {
      "inputs": [
        {
          "internalType": "address",
          "name": "",
          "type": "address"
        }
      ],
      "name": "Clients",
      "outputs": [
        {
          "internalType": "uint256",
          "name": "token_balance",
          "type": "uint256"
        }
      ],
      "stateMutability": "view",
      "type": "function"
    },
    {
      "inputs": [
        {
          "internalType": "uint256",
          "name": "",
          "type": "uint256"
        }
      ],
      "name": "Properties",
      "outputs": [
        {
          "internalType": "uint256",
          "name": "propertyId",
          "type": "uint256"
        },
        {
          "internalType": "string",
          "name": "name",
          "type": "string"
        },
        {
          "internalType": "string",
          "name": "location",
          "type": "string"
        },
        {
          "internalType": "uint256",
          "name": "baths",
          "type": "uint256"
        },
        {
          "internalType": "uint256",
          "name": "rooms",
          "type": "uint256"
        },
        {
          "internalType": "uint256",
          "name": "m2",
          "type": "uint256"
        },
        {
          "internalType": "uint256",
          "name": "price",
          "type": "uint256"
        },
        {
          "internalType": "bool",
          "name": "forSale",
          "type": "bool"
        },
        {
          "internalType": "bool",
          "name": "available",
          "type": "bool"
        }
      ],
      "stateMutability": "view",
      "type": "function"
    },
    {
      "inputs": [
        {
          "internalType": "uint256",
          "name": "propertyId",
          "type": "uint256"
        },
        {
          "internalType": "string",
          "name": "_newImage",
          "type": "string"
        }
      ],
      "name": "addPropertyImage",
      "outputs": [],
      "stateMutability": "nonpayable",
      "type": "function"
    },
    {
      "inputs": [],
      "name": "balanceOf",
      "outputs": [
        {
          "internalType": "uint256",
          "name": "",
          "type": "uint256"
        }
      ],
      "stateMutability": "view",
      "type": "function"
    },
    {
      "inputs": [
        {
          "internalType": "uint256",
          "name": "_propertyId",
          "type": "uint256"
        },
        {
          "internalType": "uint256",
          "name": "_shares",
          "type": "uint256"
        }
      ],
      "name": "buyProperty",
      "outputs": [],
      "stateMutability": "nonpayable",
      "type": "function"
    },
    {
      "inputs": [
        {
          "internalType": "uint256",
          "name": "_numTokens",
          "type": "uint256"
        }
      ],
      "name": "buyTokens",
      "outputs": [],
      "stateMutability": "payable",
      "type": "function"
    },
    {
      "inputs": [
        {
          "internalType": "uint256",
          "name": "_propertyId",
          "type": "uint256"
        }
      ],
      "name": "checkProperty",
      "outputs": [
        {
          "internalType": "bool",
          "name": "",
          "type": "bool"
        }
      ],
      "stateMutability": "view",
      "type": "function"
    },
    {
      "inputs": [
        {
          "internalType": "uint256",
          "name": "",
          "type": "uint256"
        },
        {
          "internalType": "address",
          "name": "",
          "type": "address"
        }
      ],
      "name": "clientSharesOfProperty",
      "outputs": [
        {
          "internalType": "uint256",
          "name": "",
          "type": "uint256"
        }
      ],
      "stateMutability": "view",
      "type": "function"
    },
    {
      "inputs": [],
      "name": "contractOwner",
      "outputs": [
        {
          "internalType": "address payable",
          "name": "",
          "type": "address"
        }
      ],
      "stateMutability": "view",
      "type": "function"
    },
    {
      "inputs": [
        {
          "internalType": "uint256",
          "name": "_numTokens",
          "type": "uint256"
        }
      ],
      "name": "createTokens",
      "outputs": [],
      "stateMutability": "nonpayable",
      "type": "function"
    },
    {
      "inputs": [],
      "name": "getAllProperties",
      "outputs": [
        {
          "components": [
            {
              "internalType": "uint256",
              "name": "propertyId",
              "type": "uint256"
            },
            {
              "internalType": "string",
              "name": "name",
              "type": "string"
            },
            {
              "internalType": "string",
              "name": "location",
              "type": "string"
            },
            {
              "internalType": "string[]",
              "name": "images",
              "type": "string[]"
            },
            {
              "internalType": "uint256",
              "name": "baths",
              "type": "uint256"
            },
            {
              "internalType": "uint256",
              "name": "rooms",
              "type": "uint256"
            },
            {
              "internalType": "uint256",
              "name": "m2",
              "type": "uint256"
            },
            {
              "internalType": "uint256",
              "name": "price",
              "type": "uint256"
            },
            {
              "internalType": "bool",
              "name": "forSale",
              "type": "bool"
            },
            {
              "internalType": "bool",
              "name": "available",
              "type": "bool"
            },
            {
              "internalType": "address[]",
              "name": "owners",
              "type": "address[]"
            }
          ],
          "internalType": "struct chainHousing.property[]",
          "name": "",
          "type": "tuple[]"
        }
      ],
      "stateMutability": "view",
      "type": "function"
    },
    {
      "inputs": [
        {
          "internalType": "address",
          "name": "_address",
          "type": "address"
        }
      ],
      "name": "getClientEthBalance",
      "outputs": [
        {
          "internalType": "uint256",
          "name": "",
          "type": "uint256"
        }
      ],
      "stateMutability": "view",
      "type": "function"
    },
    {
      "inputs": [
        {
          "internalType": "address",
          "name": "_addr",
          "type": "address"
        }
      ],
      "name": "getClientProperties",
      "outputs": [
        {
          "internalType": "uint256[]",
          "name": "",
          "type": "uint256[]"
        }
      ],
      "stateMutability": "view",
      "type": "function"
    },
    {
      "inputs": [
        {
          "internalType": "uint256",
          "name": "_propId",
          "type": "uint256"
        },
        {
          "internalType": "address",
          "name": "_addr",
          "type": "address"
        }
      ],
      "name": "getClientShares",
      "outputs": [
        {
          "internalType": "uint256",
          "name": "",
          "type": "uint256"
        }
      ],
      "stateMutability": "view",
      "type": "function"
    },
    {
      "inputs": [],
      "name": "getContractAddress",
      "outputs": [
        {
          "internalType": "address",
          "name": "",
          "type": "address"
        }
      ],
      "stateMutability": "view",
      "type": "function"
    },
    {
      "inputs": [],
      "name": "getContractEthBalance",
      "outputs": [
        {
          "internalType": "uint256",
          "name": "",
          "type": "uint256"
        }
      ],
      "stateMutability": "view",
      "type": "function"
    },
    {
      "inputs": [
        {
          "internalType": "uint256",
          "name": "propertyId",
          "type": "uint256"
        }
      ],
      "name": "getPropertyImages",
      "outputs": [
        {
          "internalType": "string[]",
          "name": "",
          "type": "string[]"
        }
      ],
      "stateMutability": "view",
      "type": "function"
    },
    {
      "inputs": [
        {
          "internalType": "uint256",
          "name": "propertyId",
          "type": "uint256"
        }
      ],
      "name": "getPropertyOwners",
      "outputs": [
        {
          "internalType": "address[]",
          "name": "",
          "type": "address[]"
        }
      ],
      "stateMutability": "view",
      "type": "function"
    },
    {
      "inputs": [
        {
          "internalType": "uint256",
          "name": "_tokens",
          "type": "uint256"
        }
      ],
      "name": "getTokenPrice",
      "outputs": [
        {
          "internalType": "uint256",
          "name": "",
          "type": "uint256"
        }
      ],
      "stateMutability": "view",
      "type": "function"
    },
    {
      "inputs": [
        {
          "internalType": "string",
          "name": "_name",
          "type": "string"
        },
        {
          "internalType": "string",
          "name": "_location",
          "type": "string"
        },
        {
          "internalType": "string",
          "name": "_img",
          "type": "string"
        },
        {
          "internalType": "uint256",
          "name": "_baths",
          "type": "uint256"
        },
        {
          "internalType": "uint256",
          "name": "_rooms",
          "type": "uint256"
        },
        {
          "internalType": "uint256",
          "name": "_mts",
          "type": "uint256"
        },
        {
          "internalType": "uint256",
          "name": "_price",
          "type": "uint256"
        }
      ],
      "name": "listProperty",
      "outputs": [],
      "stateMutability": "nonpayable",
      "type": "function"
    },
    {
      "inputs": [],
      "name": "myTokens",
      "outputs": [
        {
          "internalType": "uint256",
          "name": "",
          "type": "uint256"
        }
      ],
      "stateMutability": "view",
      "type": "function"
    },
    {
      "inputs": [],
      "name": "name",
      "outputs": [
        {
          "internalType": "string",
          "name": "",
          "type": "string"
        }
      ],
      "stateMutability": "view",
      "type": "function"
    },
    {
      "inputs": [
        {
          "internalType": "address",
          "name": "owner",
          "type": "address"
        },
        {
          "internalType": "uint256",
          "name": "_propestyId",
          "type": "uint256"
        }
      ],
      "name": "removeOwner",
      "outputs": [],
      "stateMutability": "nonpayable",
      "type": "function"
    },
    {
      "inputs": [
        {
          "internalType": "uint256",
          "name": "_propertyId",
          "type": "uint256"
        }
      ],
      "name": "removeProperty",
      "outputs": [],
      "stateMutability": "nonpayable",
      "type": "function"
    },
    {
      "inputs": [
        {
          "internalType": "uint256",
          "name": "_propertyId",
          "type": "uint256"
        },
        {
          "internalType": "uint256",
          "name": "_shares",
          "type": "uint256"
        }
      ],
      "name": "sellProperty",
      "outputs": [],
      "stateMutability": "nonpayable",
      "type": "function"
    },
    {
      "inputs": [
        {
          "internalType": "uint256",
          "name": "_numTokens",
          "type": "uint256"
        }
      ],
      "name": "sellTokens",
      "outputs": [],
      "stateMutability": "payable",
      "type": "function"
    },
    {
      "inputs": [
        {
          "internalType": "uint256",
          "name": "_newExchange",
          "type": "uint256"
        }
      ],
      "name": "setManualExchange",
      "outputs": [],
      "stateMutability": "nonpayable",
      "type": "function"
    },
    {
      "inputs": [],
      "name": "showPropertiesId",
      "outputs": [
        {
          "internalType": "uint256[]",
          "name": "",
          "type": "uint256[]"
        }
      ],
      "stateMutability": "view",
      "type": "function"
    },
    {
      "inputs": [],
      "name": "symbol",
      "outputs": [
        {
          "internalType": "string",
          "name": "",
          "type": "string"
        }
      ],
      "stateMutability": "view",
      "type": "function"
    },
    {
      "inputs": [
        {
          "internalType": "uint256",
          "name": "_numTokens",
          "type": "uint256"
        }
      ],
      "name": "tokenPrice",
      "outputs": [
        {
          "internalType": "uint256",
          "name": "",
          "type": "uint256"
        }
      ],
      "stateMutability": "view",
      "type": "function"
    }
  ],
  "bytecode": "0x60806040523480156200001157600080fd5b5060006040516200002290620000f0565b6200002e91906200010f565b604051809103906000f0801580156200004b573d6000803e3d6000fd5b506000806101000a81548173ffffffffffffffffffffffffffffffffffffffff021916908373ffffffffffffffffffffffffffffffffffffffff16021790555033600160006101000a81548173ffffffffffffffffffffffffffffffffffffffff021916908373ffffffffffffffffffffffffffffffffffffffff1602179055506601e2083dbb2000600281905550600260048190555060016005819055506200014a565b6112e580620047f983390190565b620001098162000136565b82525050565b6000602082019050620001266000830184620000fe565b92915050565b6000819050919050565b600062000143826200012c565b9050919050565b61469f806200015a6000396000f3fe6080604052600436106101cd5760003560e01c8063752af3ff116100f7578063bc226dd311610095578063ce606ee011610064578063ce606ee0146106ae578063d4ddce8a146106d9578063e818554914610716578063ed46a8cf14610753576101cd565b8063bc226dd3146105e2578063bc43d06f1461061f578063bfd2b3a314610648578063c457fb3714610671576101cd565b806395d89b41116100d157806395d89b411461050c5780639d11688414610537578063a59567381461057c578063a772c927146105b9576101cd565b8063752af3ff1461047b5780637e1f2bb8146104b8578063949e8acd146104e1576101cd565b806346771db71161016f578063555cd7ae1161013e578063555cd7ae146103ce57806359d7752e146103f75780636c11bcd314610434578063722713f714610450576101cd565b806346771db7146102fe5780634de57d751461033b5780635469e5e0146103665780635479767614610391576101cd565b806328383422116101ab578063283834221461026357806332a2c5d01461028c5780633610724e146102b75780633d51402c146102d3576101cd565b80630589f50b146101d257806306fdde031461020f578063146412641461023a575b600080fd5b3480156101de57600080fd5b506101f960048036038101906101f491906132b4565b61077c565b60405161020691906140e1565b60405180910390f35b34801561021b57600080fd5b5061022461079d565b6040516102319190613f1f565b60405180910390f35b34801561024657600080fd5b50610261600480360381019061025c91906134f7565b610847565b005b34801561026f57600080fd5b5061028a60048036038101906102859190613469565b6109a9565b005b34801561029857600080fd5b506102a1610a5d565b6040516102ae9190613e0f565b60405180910390f35b6102d160048036038101906102cc9190613469565b610a65565b005b3480156102df57600080fd5b506102e8610c6a565b6040516102f59190613ec0565b60405180910390f35b34801561030a57600080fd5b50610325600480360381019061032091906134bb565b6110bb565b60405161033291906140e1565b60405180910390f35b34801561034757600080fd5b50610350611116565b60405161035d91906140e1565b60405180910390f35b34801561037257600080fd5b5061037b611136565b6040516103889190613ee2565b60405180910390f35b34801561039d57600080fd5b506103b860048036038101906103b39190613469565b61118e565b6040516103c59190613e7c565b60405180910390f35b3480156103da57600080fd5b506103f560048036038101906103f09190613383565b61128c565b005b34801561040357600080fd5b5061041e600480360381019061041991906134bb565b61173d565b60405161042b91906140e1565b60405180910390f35b61044e60048036038101906104499190613469565b611762565b005b34801561045c57600080fd5b50610465611980565b60405161047291906140e1565b60405180910390f35b34801561048757600080fd5b506104a2600480360381019061049d91906132b4565b611a31565b6040516104af9190613ee2565b60405180910390f35b3480156104c457600080fd5b506104df60048036038101906104da9190613469565b611acb565b005b3480156104ed57600080fd5b506104f6611beb565b60405161050391906140e1565b60405180910390f35b34801561051857600080fd5b50610521611c9c565b60405161052e9190613f1f565b60405180910390f35b34801561054357600080fd5b5061055e60048036038101906105599190613469565b611d46565b604051610573999897969594939291906140fc565b60405180910390f35b34801561058857600080fd5b506105a3600480360381019061059e91906132b4565b611ebe565b6040516105b091906140e1565b60405180910390f35b3480156105c557600080fd5b506105e060048036038101906105db919061354b565b611edc565b005b3480156105ee57600080fd5b5061060960048036038101906106049190613469565b612460565b6040516106169190613f04565b60405180910390f35b34801561062b57600080fd5b5061064660048036038101906106419190613469565b6124e9565b005b34801561065457600080fd5b5061066f600480360381019061066a91906132dd565b612684565b005b34801561067d57600080fd5b5061069860048036038101906106939190613469565b612915565b6040516106a591906140e1565b60405180910390f35b3480156106ba57600080fd5b506106c361292c565b6040516106d09190613e2a565b60405180910390f35b3480156106e557600080fd5b5061070060048036038101906106fb9190613469565b612952565b60405161070d91906140e1565b60405180910390f35b34801561072257600080fd5b5061073d60048036038101906107389190613469565b612969565b60405161074a9190613e9e565b60405180910390f35b34801561075f57600080fd5b5061077a6004803603810190610775919061354b565b612ab2565b005b60008173ffffffffffffffffffffffffffffffffffffffff16319050919050565b606060008054906101000a900473ffffffffffffffffffffffffffffffffffffffff1673ffffffffffffffffffffffffffffffffffffffff166306fdde036040518163ffffffff1660e01b815260040160006040518083038186803b15801561080557600080fd5b505afa158015610819573d6000803e3d6000fd5b505050506040513d6000823e3d601f19601f820116820180604052508101906108429190613342565b905090565b600160009054906101000a900473ffffffffffffffffffffffffffffffffffffffff16600160009054906101000a900473ffffffffffffffffffffffffffffffffffffffff1673ffffffffffffffffffffffffffffffffffffffff168173ffffffffffffffffffffffffffffffffffffffff16146108fa576040517f08c379a00000000000000000000000000000000000000000000000000000000081526004016108f190613f81565b60405180910390fd5b600060066000858152602001908152602001600020600001541415610954576040517f08c379a000000000000000000000000000000000000000000000000000000000815260040161094b90613fc1565b60405180910390fd5b60066000848152602001908152602001600020600301829080600181540180825580915050600190039060005260206000200160009091909190915090805190602001906109a3929190612f41565b50505050565b33600160009054906101000a900473ffffffffffffffffffffffffffffffffffffffff1673ffffffffffffffffffffffffffffffffffffffff168173ffffffffffffffffffffffffffffffffffffffff1614610a3a576040517f08c379a0000000000000000000000000000000000000000000000000000000008152600401610a3190613f81565b60405180910390fd5b60008290506000600190508082610a5191906143b2565b60028190555050505050565b600030905090565b6000610a7082612952565b905080341015610ab5576040517f08c379a0000000000000000000000000000000000000000000000000000000008152600401610aac90613f61565b60405180910390fd5b60008134610ac3919061440c565b90503373ffffffffffffffffffffffffffffffffffffffff166108fc829081150290604051600060405180830381858888f19350505050158015610b0b573d6000803e3d6000fd5b506000610b16611980565b905080841115610b5b576040517f08c379a0000000000000000000000000000000000000000000000000000000008152600401610b5290614061565b60405180910390fd5b60008054906101000a900473ffffffffffffffffffffffffffffffffffffffff1673ffffffffffffffffffffffffffffffffffffffff166353d051b43033876040518463ffffffff1660e01b8152600401610bb893929190613e45565b602060405180830381600087803b158015610bd257600080fd5b505af1158015610be6573d6000803e3d6000fd5b505050506040513d601f19601f82011682018060405250810190610c0a9190613319565b5083600960003373ffffffffffffffffffffffffffffffffffffffff1673ffffffffffffffffffffffffffffffffffffffff1681526020019081526020016000206001016000828254610c5d919061432b565b9250508190555050505050565b60606000600780549050905060008167ffffffffffffffff811115610cb8577f4e487b7100000000000000000000000000000000000000000000000000000000600052604160045260246000fd5b604051908082528060200260200182016040528015610cf157816020015b610cde612fc7565b815260200190600190039081610cd65790505b50905060005b828110156110b257600060078281548110610d3b577f4e487b7100000000000000000000000000000000000000000000000000000000600052603260045260246000fd5b90600052602060002001549050600660008281526020019081526020016000206040518061016001604052908160008201548152602001600182018054610d81906144dc565b80601f0160208091040260200160405190810160405280929190818152602001828054610dad906144dc565b8015610dfa5780601f10610dcf57610100808354040283529160200191610dfa565b820191906000526020600020905b815481529060010190602001808311610ddd57829003601f168201915b50505050508152602001600282018054610e13906144dc565b80601f0160208091040260200160405190810160405280929190818152602001828054610e3f906144dc565b8015610e8c5780601f10610e6157610100808354040283529160200191610e8c565b820191906000526020600020905b815481529060010190602001808311610e6f57829003601f168201915b5050505050815260200160038201805480602002602001604051908101604052809291908181526020016000905b82821015610f66578382906000526020600020018054610ed9906144dc565b80601f0160208091040260200160405190810160405280929190818152602001828054610f05906144dc565b8015610f525780601f10610f2757610100808354040283529160200191610f52565b820191906000526020600020905b815481529060010190602001808311610f3557829003601f168201915b505050505081526020019060010190610eba565b505050508152602001600482015481526020016005820154815260200160068201548152602001600782015481526020016008820160009054906101000a900460ff161515151581526020016008820160019054906101000a900460ff161515151581526020016009820180548060200260200160405190810160405280929190818152602001828054801561105157602002820191906000526020600020905b8160009054906101000a900473ffffffffffffffffffffffffffffffffffffffff1673ffffffffffffffffffffffffffffffffffffffff1681526020019060010190808311611007575b505050505081525050838381518110611093577f4e487b7100000000000000000000000000000000000000000000000000000000600052603260045260246000fd5b60200260200101819052505080806110aa9061450e565b915050610cf7565b50809250505090565b60006008600084815260200190815260200160002060008373ffffffffffffffffffffffffffffffffffffffff1673ffffffffffffffffffffffffffffffffffffffff16815260200190815260200160002054905092915050565b600080670de0b6b3a76400004761112d9190614381565b90508091505090565b6060600780548060200260200160405190810160405280929190818152602001828054801561118457602002820191906000526020600020905b815481526020019060010190808311611170575b5050505050905090565b60606000600660008481526020019081526020016000206000015414156111ea576040517f08c379a00000000000000000000000000000000000000000000000000000000081526004016111e190613fc1565b60405180910390fd5b6006600083815260200190815260200160002060090180548060200260200160405190810160405280929190818152602001828054801561128057602002820191906000526020600020905b8160009054906101000a900473ffffffffffffffffffffffffffffffffffffffff1673ffffffffffffffffffffffffffffffffffffffff1681526020019060010190808311611236575b50505050509050919050565b600160009054906101000a900473ffffffffffffffffffffffffffffffffffffffff16600160009054906101000a900473ffffffffffffffffffffffffffffffffffffffff1673ffffffffffffffffffffffffffffffffffffffff168173ffffffffffffffffffffffffffffffffffffffff161461133f576040517f08c379a000000000000000000000000000000000000000000000000000000000815260040161133690613f81565b60405180910390fd5b600360008154809291906113529061450e565b9190505550600060405180610160016040528060035481526020018a8152602001898152602001600167ffffffffffffffff8111156113ba577f4e487b7100000000000000000000000000000000000000000000000000000000600052604160045260246000fd5b6040519080825280602002602001820160405280156113ed57816020015b60608152602001906001900390816113d85790505b508152602001878152602001868152602001858152602001848152602001600115158152602001600115158152602001600167ffffffffffffffff81111561145e577f4e487b7100000000000000000000000000000000000000000000000000000000600052604160045260246000fd5b60405190808252806020026020018201604052801561148c5781602001602082028036833780820191505090505b5081525090508681606001516000815181106114d1577f4e487b7100000000000000000000000000000000000000000000000000000000600052603260045260246000fd5b6020026020010181905250600160009054906101000a900473ffffffffffffffffffffffffffffffffffffffff1681610140015160008151811061153e577f4e487b7100000000000000000000000000000000000000000000000000000000600052603260045260246000fd5b602002602001019073ffffffffffffffffffffffffffffffffffffffff16908173ffffffffffffffffffffffffffffffffffffffff16815250508060066000836000015181526020019081526020016000206000820151816000015560208201518160010190805190602001906115b6929190612f41565b5060408201518160020190805190602001906115d3929190612f41565b5060608201518160030190805190602001906115f0929190613025565b506080820151816004015560a0820151816005015560c0820151816006015560e082015181600701556101008201518160080160006101000a81548160ff0219169083151502179055506101208201518160080160016101000a81548160ff021916908315150217905550610140820151816009019080519060200190611678929190613085565b50905050600781600001519080600181540180825580915050600190039060005260206000200160009091909190915055606460086000836000015181526020019081526020016000206000600160009054906101000a900473ffffffffffffffffffffffffffffffffffffffff1673ffffffffffffffffffffffffffffffffffffffff1673ffffffffffffffffffffffffffffffffffffffff168152602001908152602001600020819055506117328160e00151611acb565b505050505050505050565b6008602052816000526040600020602052806000526040600020600091509150505481565b600081116117a5576040517f08c379a000000000000000000000000000000000000000000000000000000000815260040161179c90614081565b60405180910390fd5b806117ae611beb565b10156117ef576040517f08c379a00000000000000000000000000000000000000000000000000000000081526004016117e690613fa1565b60405180910390fd5b60006117fa82612952565b9050600060646005548361180e91906143b2565b6118189190614381565b905060008183611828919061440c565b905060008054906101000a900473ffffffffffffffffffffffffffffffffffffffff1673ffffffffffffffffffffffffffffffffffffffff166353d051b43330876040518463ffffffff1660e01b815260040161188793929190613e45565b602060405180830381600087803b1580156118a157600080fd5b505af11580156118b5573d6000803e3d6000fd5b505050506040513d601f19601f820116820180604052508101906118d99190613319565b503373ffffffffffffffffffffffffffffffffffffffff166108fc829081150290604051600060405180830381858888f19350505050158015611920573d6000803e3d6000fd5b5083600960003373ffffffffffffffffffffffffffffffffffffffff1673ffffffffffffffffffffffffffffffffffffffff1681526020019081526020016000206001016000828254611973919061440c565b9250508190555050505050565b60008060009054906101000a900473ffffffffffffffffffffffffffffffffffffffff1673ffffffffffffffffffffffffffffffffffffffff166370a08231306040518263ffffffff1660e01b81526004016119dc9190613e0f565b60206040518083038186803b1580156119f457600080fd5b505afa158015611a08573d6000803e3d6000fd5b505050506040513d601f19601f82011682018060405250810190611a2c9190613492565b905090565b6060600960008373ffffffffffffffffffffffffffffffffffffffff1673ffffffffffffffffffffffffffffffffffffffff168152602001908152602001600020600001805480602002602001604051908101604052809291908181526020018280548015611abf57602002820191906000526020600020905b815481526020019060010190808311611aab575b50505050509050919050565b33600160009054906101000a900473ffffffffffffffffffffffffffffffffffffffff1673ffffffffffffffffffffffffffffffffffffffff168173ffffffffffffffffffffffffffffffffffffffff1614611b5c576040517f08c379a0000000000000000000000000000000000000000000000000000000008152600401611b5390613f81565b60405180910390fd5b60008054906101000a900473ffffffffffffffffffffffffffffffffffffffff1673ffffffffffffffffffffffffffffffffffffffff16634ee22adf836040518263ffffffff1660e01b8152600401611bb591906140e1565b600060405180830381600087803b158015611bcf57600080fd5b505af1158015611be3573d6000803e3d6000fd5b505050505050565b60008060009054906101000a900473ffffffffffffffffffffffffffffffffffffffff1673ffffffffffffffffffffffffffffffffffffffff166370a08231336040518263ffffffff1660e01b8152600401611c479190613e0f565b60206040518083038186803b158015611c5f57600080fd5b505afa158015611c73573d6000803e3d6000fd5b505050506040513d601f19601f82011682018060405250810190611c979190613492565b905090565b606060008054906101000a900473ffffffffffffffffffffffffffffffffffffffff1673ffffffffffffffffffffffffffffffffffffffff166395d89b416040518163ffffffff1660e01b815260040160006040518083038186803b158015611d0457600080fd5b505afa158015611d18573d6000803e3d6000fd5b505050506040513d6000823e3d601f19601f82011682018060405250810190611d419190613342565b905090565b6006602052806000526040600020600091509050806000015490806001018054611d6f906144dc565b80601f0160208091040260200160405190810160405280929190818152602001828054611d9b906144dc565b8015611de85780601f10611dbd57610100808354040283529160200191611de8565b820191906000526020600020905b815481529060010190602001808311611dcb57829003601f168201915b505050505090806002018054611dfd906144dc565b80601f0160208091040260200160405190810160405280929190818152602001828054611e29906144dc565b8015611e765780601f10611e4b57610100808354040283529160200191611e76565b820191906000526020600020905b815481529060010190602001808311611e5957829003601f168201915b5050505050908060040154908060050154908060060154908060070154908060080160009054906101000a900460ff16908060080160019054906101000a900460ff16905089565b60096020528060005260406000206000915090508060010154905081565b611ee582612460565b611f24576040517f08c379a0000000000000000000000000000000000000000000000000000000008152600401611f1b90614001565b60405180910390fd5b6006600083815260200190815260200160002060080160019054906101000a900460ff16611f87576040517f08c379a0000000000000000000000000000000000000000000000000000000008152600401611f7e906140c1565b60405180910390fd5b6006600083815260200190815260200160002060080160009054906101000a900460ff16611fea576040517f08c379a0000000000000000000000000000000000000000000000000000000008152600401611fe190613f41565b60405180910390fd5b6000606482600660008681526020019081526020016000206007015461201091906143b2565b61201a9190614381565b905080612025611beb565b1015612066576040517f08c379a000000000000000000000000000000000000000000000000000000000815260040161205d90614041565b60405180910390fd5b60008054906101000a900473ffffffffffffffffffffffffffffffffffffffff1673ffffffffffffffffffffffffffffffffffffffff166353d051b43330846040518463ffffffff1660e01b81526004016120c393929190613e45565b602060405180830381600087803b1580156120dd57600080fd5b505af11580156120f1573d6000803e3d6000fd5b505050506040513d601f19601f820116820180604052508101906121159190613319565b5060066000848152602001908152602001600020600901339080600181540180825580915050600190039060005260206000200160009091909190916101000a81548173ffffffffffffffffffffffffffffffffffffffff021916908373ffffffffffffffffffffffffffffffffffffffff160217905550816008600085815260200190815260200160002060003373ffffffffffffffffffffffffffffffffffffffff1673ffffffffffffffffffffffffffffffffffffffff16815260200190815260200160002060008282546121ed919061432b565b925050819055506000600860008581526020019081526020016000206000600160009054906101000a900473ffffffffffffffffffffffffffffffffffffffff1673ffffffffffffffffffffffffffffffffffffffff1673ffffffffffffffffffffffffffffffffffffffff1681526020019081526020016000205490508281612277919061440c565b600860008681526020019081526020016000206000600160009054906101000a900473ffffffffffffffffffffffffffffffffffffffff1673ffffffffffffffffffffffffffffffffffffffff1673ffffffffffffffffffffffffffffffffffffffff1681526020019081526020016000208190555081600960003373ffffffffffffffffffffffffffffffffffffffff1673ffffffffffffffffffffffffffffffffffffffff168152602001908152602001600020600101600082825461233f919061440c565b92505081905550600960003373ffffffffffffffffffffffffffffffffffffffff1673ffffffffffffffffffffffffffffffffffffffff1681526020019081526020016000206000018490806001815401808255809150506001900390600052602060002001600090919091909150556000600860008681526020019081526020016000206000600160009054906101000a900473ffffffffffffffffffffffffffffffffffffffff1673ffffffffffffffffffffffffffffffffffffffff1673ffffffffffffffffffffffffffffffffffffffff16815260200190815260200160002054141561245a5760006006600086815260200190815260200160002060080160006101000a81548160ff0219169083151502179055505b50505050565b600080600090505b6007805490508110156124de5782600782815481106124b0577f4e487b7100000000000000000000000000000000000000000000000000000000600052603260045260246000fd5b906000526020600020015414156124cb5760019150506124e4565b80806124d69061450e565b915050612468565b50600090505b919050565b600160009054906101000a900473ffffffffffffffffffffffffffffffffffffffff16600160009054906101000a900473ffffffffffffffffffffffffffffffffffffffff1673ffffffffffffffffffffffffffffffffffffffff168173ffffffffffffffffffffffffffffffffffffffff161461259c576040517f08c379a000000000000000000000000000000000000000000000000000000000815260040161259390613f81565b60405180910390fd5b6064600860008481526020019081526020016000206000600160009054906101000a900473ffffffffffffffffffffffffffffffffffffffff1673ffffffffffffffffffffffffffffffffffffffff1673ffffffffffffffffffffffffffffffffffffffff1681526020019081526020016000205414612651576040517f08c379a0000000000000000000000000000000000000000000000000000000008152600401612648906140a1565b60405180910390fd5b60006006600084815260200190815260200160002060080160016101000a81548160ff0219169083151502179055505050565b60005b600160066000848152602001908152602001600020600901805490506126ad919061440c565b81101561288f578273ffffffffffffffffffffffffffffffffffffffff16600660008481526020019081526020016000206009018281548110612719577f4e487b7100000000000000000000000000000000000000000000000000000000600052603260045260246000fd5b9060005260206000200160009054906101000a900473ffffffffffffffffffffffffffffffffffffffff1673ffffffffffffffffffffffffffffffffffffffff16141561287c5760066000838152602001908152602001600020600901600182612783919061432b565b815481106127ba577f4e487b7100000000000000000000000000000000000000000000000000000000600052603260045260246000fd5b9060005260206000200160009054906101000a900473ffffffffffffffffffffffffffffffffffffffff16600660008481526020019081526020016000206009018281548110612833577f4e487b7100000000000000000000000000000000000000000000000000000000600052603260045260246000fd5b9060005260206000200160006101000a81548173ffffffffffffffffffffffffffffffffffffffff021916908373ffffffffffffffffffffffffffffffffffffffff1602179055505b80806128879061450e565b915050612687565b50600660008281526020019081526020016000206009018054806128dc577f4e487b7100000000000000000000000000000000000000000000000000000000600052603160045260246000fd5b6001900381819060005260206000200160006101000a81549073ffffffffffffffffffffffffffffffffffffffff021916905590555050565b60006002548261292591906143b2565b9050919050565b600160009054906101000a900473ffffffffffffffffffffffffffffffffffffffff1681565b60006002548261296291906143b2565b9050919050565b60606000600660008481526020019081526020016000206000015414156129c5576040517f08c379a00000000000000000000000000000000000000000000000000000000081526004016129bc90613fc1565b60405180910390fd5b60066000838152602001908152602001600020600301805480602002602001604051908101604052809291908181526020016000905b82821015612aa7578382906000526020600020018054612a1a906144dc565b80601f0160208091040260200160405190810160405280929190818152602001828054612a46906144dc565b8015612a935780601f10612a6857610100808354040283529160200191612a93565b820191906000526020600020905b815481529060010190602001808311612a7657829003601f168201915b5050505050815260200190600101906129fb565b505050509050919050565b60006008600084815260200190815260200160002060003373ffffffffffffffffffffffffffffffffffffffff1673ffffffffffffffffffffffffffffffffffffffff16815260200190815260200160002054905060008111612b4a576040517f08c379a0000000000000000000000000000000000000000000000000000000008152600401612b4190614021565b60405180910390fd5b81811015612b8d576040517f08c379a0000000000000000000000000000000000000000000000000000000008152600401612b8490613fe1565b60405180910390fd5b60006064836006600087815260200190815260200160002060070154612bb391906143b2565b612bbd9190614381565b90506000606460045483612bd191906143b2565b612bdb9190614381565b90506001811015612beb57600190505b60008183612bf9919061440c565b9050846008600088815260200190815260200160002060003373ffffffffffffffffffffffffffffffffffffffff1673ffffffffffffffffffffffffffffffffffffffff1681526020019081526020016000206000828254612c5b919061440c565b9250508190555084600860008881526020019081526020016000206000600160009054906101000a900473ffffffffffffffffffffffffffffffffffffffff1673ffffffffffffffffffffffffffffffffffffffff1673ffffffffffffffffffffffffffffffffffffffff1681526020019081526020016000206000828254612ce4919061432b565b9250508190555060008054906101000a900473ffffffffffffffffffffffffffffffffffffffff1673ffffffffffffffffffffffffffffffffffffffff166353d051b43033846040518463ffffffff1660e01b8152600401612d4893929190613e45565b602060405180830381600087803b158015612d6257600080fd5b505af1158015612d76573d6000803e3d6000fd5b505050506040513d601f19601f82011682018060405250810190612d9a9190613319565b5080600960003373ffffffffffffffffffffffffffffffffffffffff1673ffffffffffffffffffffffffffffffffffffffff1681526020019081526020016000206001016000828254612ded919061432b565b9250508190555060008015612e7457506000600860008881526020019081526020016000206000600160009054906101000a900473ffffffffffffffffffffffffffffffffffffffff1673ffffffffffffffffffffffffffffffffffffffff1673ffffffffffffffffffffffffffffffffffffffff16815260200190815260200160002054115b6006600088815260200190815260200160002060080160006101000a81548160ff021916908315150217905515612ed55760016006600088815260200190815260200160002060080160006101000a81548160ff0219169083151502179055505b60016008600088815260200190815260200160002060003373ffffffffffffffffffffffffffffffffffffffff1673ffffffffffffffffffffffffffffffffffffffff168152602001908152602001600020541015612f3957612f383387612684565b5b505050505050565b828054612f4d906144dc565b90600052602060002090601f016020900481019282612f6f5760008555612fb6565b82601f10612f8857805160ff1916838001178555612fb6565b82800160010185558215612fb6579182015b82811115612fb5578251825591602001919060010190612f9a565b5b509050612fc3919061310f565b5090565b6040518061016001604052806000815260200160608152602001606081526020016060815260200160008152602001600081526020016000815260200160008152602001600015158152602001600015158152602001606081525090565b828054828255906000526020600020908101928215613074579160200282015b82811115613073578251829080519060200190613063929190612f41565b5091602001919060010190613045565b5b509050613081919061312c565b5090565b8280548282559060005260206000209081019282156130fe579160200282015b828111156130fd5782518260006101000a81548173ffffffffffffffffffffffffffffffffffffffff021916908373ffffffffffffffffffffffffffffffffffffffff160217905550916020019190600101906130a5565b5b50905061310b919061310f565b5090565b5b80821115613128576000816000905550600101613110565b5090565b5b8082111561314c57600081816131439190613150565b5060010161312d565b5090565b50805461315c906144dc565b6000825580601f1061316e575061318d565b601f01602090049060005260206000209081019061318c919061310f565b5b50565b60006131a361319e846141c8565b614197565b9050828152602081018484840111156131bb57600080fd5b6131c684828561449a565b509392505050565b60006131e16131dc846141c8565b614197565b9050828152602081018484840111156131f957600080fd5b6132048482856144a9565b509392505050565b60008135905061321b81614624565b92915050565b6000815190506132308161463b565b92915050565b600082601f83011261324757600080fd5b8135613257848260208601613190565b91505092915050565b600082601f83011261327157600080fd5b81516132818482602086016131ce565b91505092915050565b60008135905061329981614652565b92915050565b6000815190506132ae81614652565b92915050565b6000602082840312156132c657600080fd5b60006132d48482850161320c565b91505092915050565b600080604083850312156132f057600080fd5b60006132fe8582860161320c565b925050602061330f8582860161328a565b9150509250929050565b60006020828403121561332b57600080fd5b600061333984828501613221565b91505092915050565b60006020828403121561335457600080fd5b600082015167ffffffffffffffff81111561336e57600080fd5b61337a84828501613260565b91505092915050565b600080600080600080600060e0888a03121561339e57600080fd5b600088013567ffffffffffffffff8111156133b857600080fd5b6133c48a828b01613236565b975050602088013567ffffffffffffffff8111156133e157600080fd5b6133ed8a828b01613236565b965050604088013567ffffffffffffffff81111561340a57600080fd5b6134168a828b01613236565b95505060606134278a828b0161328a565b94505060806134388a828b0161328a565b93505060a06134498a828b0161328a565b92505060c061345a8a828b0161328a565b91505092959891949750929550565b60006020828403121561347b57600080fd5b60006134898482850161328a565b91505092915050565b6000602082840312156134a457600080fd5b60006134b28482850161329f565b91505092915050565b600080604083850312156134ce57600080fd5b60006134dc8582860161328a565b92505060206134ed8582860161320c565b9150509250929050565b6000806040838503121561350a57600080fd5b60006135188582860161328a565b925050602083013567ffffffffffffffff81111561353557600080fd5b61354185828601613236565b9150509250929050565b6000806040838503121561355e57600080fd5b600061356c8582860161328a565b925050602061357d8582860161328a565b9150509250929050565b600061359383836135ee565b60208301905092915050565b60006135ab83836138a3565b905092915050565b60006135bf8383613ced565b905092915050565b60006135d38383613df1565b60208301905092915050565b6135e881614452565b82525050565b6135f781614440565b82525050565b61360681614440565b82525050565b600061361782614238565b61362181856142a3565b935061362c836141f8565b8060005b8381101561365d5781516136448882613587565b975061364f8361426f565b925050600181019050613630565b5085935050505092915050565b600061367582614238565b61367f81856142b4565b935061368a836141f8565b8060005b838110156136bb5781516136a28882613587565b97506136ad8361426f565b92505060018101905061368e565b5085935050505092915050565b60006136d382614243565b6136dd81856142c5565b9350836020820285016136ef85614208565b8060005b8581101561372b578484038952815161370c858261359f565b94506137178361427c565b925060208a019950506001810190506136f3565b50829750879550505050505092915050565b600061374882614243565b61375281856142d6565b93508360208202850161376485614208565b8060005b858110156137a05784840389528151613781858261359f565b945061378c8361427c565b925060208a01995050600181019050613768565b50829750879550505050505092915050565b60006137bd8261424e565b6137c781856142e7565b9350836020820285016137d985614218565b8060005b8581101561381557848403895281516137f685826135b3565b945061380183614289565b925060208a019950506001810190506137dd565b50829750879550505050505092915050565b600061383282614259565b61383c81856142f8565b935061384783614228565b8060005b8381101561387857815161385f88826135c7565b975061386a83614296565b92505060018101905061384b565b5085935050505092915050565b61388e81614464565b82525050565b61389d81614464565b82525050565b60006138ae82614264565b6138b88185614309565b93506138c88185602086016144a9565b6138d181614613565b840191505092915050565b60006138e782614264565b6138f1818561431a565b93506139018185602086016144a9565b61390a81614613565b840191505092915050565b600061392260188361431a565b91507f50726f7065727479206973206e6f7420666f722073616c6500000000000000006000830152602082019050919050565b600061396260128361431a565b91507f496e737566696369656e742066756e64732e00000000000000000000000000006000830152602082019050919050565b60006139a2602c8361431a565b91507f4f6e6c7920636f6e7472616374206f776e65722063616e20706572666f726d2060008301527f7468697320616374696f6e2e00000000000000000000000000000000000000006020830152604082019050919050565b6000613a08601b8361431a565b91507f596f7520646f6e74206861766520656e6f75676820746f6b656e7300000000006000830152602082019050919050565b6000613a4860178361431a565b91507f50726f706572747920646f6573206e6f742065786973740000000000000000006000830152602082019050919050565b6000613a88601f8361431a565b91507f596f7520646f6e2774206f776e2074686f7365206d616e7920736861726573006000830152602082019050919050565b6000613ac860308361431a565b91507f5468652070726f706572747920494420697320696e636f7272656374206f722060008301527f646f6573206e6f746520657869737473000000000000000000000000000000006020830152604082019050919050565b6000613b2e601b8361431a565b91507f596f7520646f6e2774206f776e20746869732070726f706572747900000000006000830152602082019050919050565b6000613b6e601c8361431a565b91507f596f7520646f6e2774206861766520656e6f75676820746f6b656e73000000006000830152602082019050919050565b6000613bae601b8361431a565b91507f4e6f7420656e6f75676820746f6b656e7320617661696c61626c6500000000006000830152602082019050919050565b6000613bee60108361431a565b91507f4e6f20746f6b657320746f2073656c6c000000000000000000000000000000006000830152602082019050919050565b6000613c2e602f8361431a565b91507f546865726520617265206f7468657220696e766573746f72732074686174206f60008301527f776e73207468652070726f7065727900000000000000000000000000000000006020830152604082019050919050565b6000613c94602a8361431a565b91507f546869732070726f706572747920686173206265656e2072656d6f766564206660008301527f726f6d206d61726b6574000000000000000000000000000000000000000000006020830152604082019050919050565b600061016083016000830151613d066000860182613df1565b5060208301518482036020860152613d1e82826138a3565b91505060408301518482036040860152613d3882826138a3565b91505060608301518482036060860152613d5282826136c8565b9150506080830151613d676080860182613df1565b5060a0830151613d7a60a0860182613df1565b5060c0830151613d8d60c0860182613df1565b5060e0830151613da060e0860182613df1565b50610100830151613db5610100860182613885565b50610120830151613dca610120860182613885565b50610140830151848203610140860152613de4828261360c565b9150508091505092915050565b613dfa81614490565b82525050565b613e0981614490565b82525050565b6000602082019050613e2460008301846135fd565b92915050565b6000602082019050613e3f60008301846135df565b92915050565b6000606082019050613e5a60008301866135fd565b613e6760208301856135fd565b613e746040830184613e00565b949350505050565b60006020820190508181036000830152613e96818461366a565b905092915050565b60006020820190508181036000830152613eb8818461373d565b905092915050565b60006020820190508181036000830152613eda81846137b2565b905092915050565b60006020820190508181036000830152613efc8184613827565b905092915050565b6000602082019050613f196000830184613894565b92915050565b60006020820190508181036000830152613f3981846138dc565b905092915050565b60006020820190508181036000830152613f5a81613915565b9050919050565b60006020820190508181036000830152613f7a81613955565b9050919050565b60006020820190508181036000830152613f9a81613995565b9050919050565b60006020820190508181036000830152613fba816139fb565b9050919050565b60006020820190508181036000830152613fda81613a3b565b9050919050565b60006020820190508181036000830152613ffa81613a7b565b9050919050565b6000602082019050818103600083015261401a81613abb565b9050919050565b6000602082019050818103600083015261403a81613b21565b9050919050565b6000602082019050818103600083015261405a81613b61565b9050919050565b6000602082019050818103600083015261407a81613ba1565b9050919050565b6000602082019050818103600083015261409a81613be1565b9050919050565b600060208201905081810360008301526140ba81613c21565b9050919050565b600060208201905081810360008301526140da81613c87565b9050919050565b60006020820190506140f66000830184613e00565b92915050565b600061012082019050614112600083018c613e00565b8181036020830152614124818b6138dc565b90508181036040830152614138818a6138dc565b90506141476060830189613e00565b6141546080830188613e00565b61416160a0830187613e00565b61416e60c0830186613e00565b61417b60e0830185613894565b614189610100830184613894565b9a9950505050505050505050565b6000604051905081810181811067ffffffffffffffff821117156141be576141bd6145e4565b5b8060405250919050565b600067ffffffffffffffff8211156141e3576141e26145e4565b5b601f19601f8301169050602081019050919050565b6000819050602082019050919050565b6000819050602082019050919050565b6000819050602082019050919050565b6000819050602082019050919050565b600081519050919050565b600081519050919050565b600081519050919050565b600081519050919050565b600081519050919050565b6000602082019050919050565b6000602082019050919050565b6000602082019050919050565b6000602082019050919050565b600082825260208201905092915050565b600082825260208201905092915050565b600082825260208201905092915050565b600082825260208201905092915050565b600082825260208201905092915050565b600082825260208201905092915050565b600082825260208201905092915050565b600082825260208201905092915050565b600061433682614490565b915061434183614490565b9250827fffffffffffffffffffffffffffffffffffffffffffffffffffffffffffffffff0382111561437657614375614557565b5b828201905092915050565b600061438c82614490565b915061439783614490565b9250826143a7576143a6614586565b5b828204905092915050565b60006143bd82614490565b91506143c883614490565b9250817fffffffffffffffffffffffffffffffffffffffffffffffffffffffffffffffff048311821515161561440157614400614557565b5b828202905092915050565b600061441782614490565b915061442283614490565b92508282101561443557614434614557565b5b828203905092915050565b600061444b82614470565b9050919050565b600061445d82614470565b9050919050565b60008115159050919050565b600073ffffffffffffffffffffffffffffffffffffffff82169050919050565b6000819050919050565b82818337600083830152505050565b60005b838110156144c75780820151818401526020810190506144ac565b838111156144d6576000848401525b50505050565b600060028204905060018216806144f457607f821691505b60208210811415614508576145076145b5565b5b50919050565b600061451982614490565b91507fffffffffffffffffffffffffffffffffffffffffffffffffffffffffffffffff82141561454c5761454b614557565b5b600182019050919050565b7f4e487b7100000000000000000000000000000000000000000000000000000000600052601160045260246000fd5b7f4e487b7100000000000000000000000000000000000000000000000000000000600052601260045260246000fd5b7f4e487b7100000000000000000000000000000000000000000000000000000000600052602260045260246000fd5b7f4e487b7100000000000000000000000000000000000000000000000000000000600052604160045260246000fd5b6000601f19601f8301169050919050565b61462d81614440565b811461463857600080fd5b50565b61464481614464565b811461464f57600080fd5b50565b61465b81614490565b811461466657600080fd5b5056fea2646970667358221220559388d70ecce10c49c219128a57a9fb35c0d9371cfcf69c40ddcdd890e5c43b64736f6c63430008000033608060405234801561001057600080fd5b506040516112e53803806112e583398181016040528101906100329190610099565b806002819055506002546000803373ffffffffffffffffffffffffffffffffffffffff1673ffffffffffffffffffffffffffffffffffffffff16815260200190815260200160002081905550506100e3565b600081519050610093816100cc565b92915050565b6000602082840312156100ab57600080fd5b60006100b984828501610084565b91505092915050565b6000819050919050565b6100d5816100c2565b81146100e057600080fd5b50565b6111f3806100f26000396000f3fe608060405234801561001057600080fd5b50600436106100ea5760003560e01c806353d051b41161008c5780637ec867e0116100665780637ec867e01461026157806395d89b411461027d578063a9059cbb1461029b578063dd62ed3e146102cb576100ea565b806353d051b4146101e35780636cf0166a1461021357806370a0823114610231576100ea565b806318160ddd116100c857806318160ddd1461015b57806323b872dd14610179578063313ce567146101a95780634ee22adf146101c7576100ea565b806304d2def8146100ef57806306fdde031461010d578063095ea7b31461012b575b600080fd5b6100f76102fb565b6040516101049190610fc9565b60405180910390f35b610115610338565b6040516101229190610fc9565b60405180910390f35b61014560048036038101906101409190610ee3565b610371565b6040516101529190610fae565b60405180910390f35b610163610463565b6040516101709190610feb565b60405180910390f35b610193600480360381019061018e9190610e94565b61046d565b6040516101a09190610fae565b60405180910390f35b6101b16107e8565b6040516101be9190611006565b60405180910390f35b6101e160048036038101906101dc9190610f1f565b6107ed565b005b6101fd60048036038101906101f89190610e94565b61085e565b60405161020a9190610fae565b60405180910390f35b61021b610a41565b6040516102289190610fc9565b60405180910390f35b61024b60048036038101906102469190610e2f565b610a7e565b6040516102589190610feb565b60405180910390f35b61027b60048036038101906102769190610f1f565b610ac6565b005b610285610b37565b6040516102929190610fc9565b60405180910390f35b6102b560048036038101906102b09190610ee3565b610b70565b6040516102c29190610fae565b60405180910390f35b6102e560048036038101906102e09190610e58565b610d52565b6040516102f29190610feb565b60405180910390f35b60606040518060400160405280600a81526020017f434841494e544f4b454e00000000000000000000000000000000000000000000815250905090565b6040518060400160405280600a81526020017f434841494e544f4b454e0000000000000000000000000000000000000000000081525081565b600081600160003373ffffffffffffffffffffffffffffffffffffffff1673ffffffffffffffffffffffffffffffffffffffff16815260200190815260200160002060008573ffffffffffffffffffffffffffffffffffffffff1673ffffffffffffffffffffffffffffffffffffffff168152602001908152602001600020819055508273ffffffffffffffffffffffffffffffffffffffff163373ffffffffffffffffffffffffffffffffffffffff167f8c5be1e5ebec7d5bd14f71427d1e84f3dd0314c0f7b2291e5b200ac8c7c3b925846040516104519190610feb565b60405180910390a36001905092915050565b6000600254905090565b60008060008573ffffffffffffffffffffffffffffffffffffffff1673ffffffffffffffffffffffffffffffffffffffff168152602001908152602001600020548211156104ba57600080fd5b600160008573ffffffffffffffffffffffffffffffffffffffff1673ffffffffffffffffffffffffffffffffffffffff16815260200190815260200160002060003373ffffffffffffffffffffffffffffffffffffffff1673ffffffffffffffffffffffffffffffffffffffff1681526020019081526020016000205482111561054357600080fd5b610594826000808773ffffffffffffffffffffffffffffffffffffffff1673ffffffffffffffffffffffffffffffffffffffff16815260200190815260200160002054610dd990919063ffffffff16565b6000808673ffffffffffffffffffffffffffffffffffffffff1673ffffffffffffffffffffffffffffffffffffffff1681526020019081526020016000208190555061066582600160008773ffffffffffffffffffffffffffffffffffffffff1673ffffffffffffffffffffffffffffffffffffffff16815260200190815260200160002060003373ffffffffffffffffffffffffffffffffffffffff1673ffffffffffffffffffffffffffffffffffffffff16815260200190815260200160002054610dd990919063ffffffff16565b600160008673ffffffffffffffffffffffffffffffffffffffff1673ffffffffffffffffffffffffffffffffffffffff16815260200190815260200160002060003373ffffffffffffffffffffffffffffffffffffffff1673ffffffffffffffffffffffffffffffffffffffff16815260200190815260200160002081905550610736826000808673ffffffffffffffffffffffffffffffffffffffff1673ffffffffffffffffffffffffffffffffffffffff16815260200190815260200160002054610def90919063ffffffff16565b6000808573ffffffffffffffffffffffffffffffffffffffff1673ffffffffffffffffffffffffffffffffffffffff168152602001908152602001600020819055508273ffffffffffffffffffffffffffffffffffffffff168473ffffffffffffffffffffffffffffffffffffffff167fddf252ad1be2c89b69c2b068fc378daa952ba7f163c4a11628f55a4df523b3ef846040516107d59190610feb565b60405180910390a3600190509392505050565b601281565b80600260008282546107ff919061103d565b92505081905550806000803373ffffffffffffffffffffffffffffffffffffffff1673ffffffffffffffffffffffffffffffffffffffff1681526020019081526020016000206000828254610854919061103d565b9250508190555050565b60008060008573ffffffffffffffffffffffffffffffffffffffff1673ffffffffffffffffffffffffffffffffffffffff168152602001908152602001600020548211156108ab57600080fd5b6108fc826000808773ffffffffffffffffffffffffffffffffffffffff1673ffffffffffffffffffffffffffffffffffffffff16815260200190815260200160002054610dd990919063ffffffff16565b6000808673ffffffffffffffffffffffffffffffffffffffff1673ffffffffffffffffffffffffffffffffffffffff1681526020019081526020016000208190555061098f826000808673ffffffffffffffffffffffffffffffffffffffff1673ffffffffffffffffffffffffffffffffffffffff16815260200190815260200160002054610def90919063ffffffff16565b6000808573ffffffffffffffffffffffffffffffffffffffff1673ffffffffffffffffffffffffffffffffffffffff168152602001908152602001600020819055508273ffffffffffffffffffffffffffffffffffffffff168473ffffffffffffffffffffffffffffffffffffffff167fddf252ad1be2c89b69c2b068fc378daa952ba7f163c4a11628f55a4df523b3ef84604051610a2e9190610feb565b60405180910390a3600190509392505050565b60606040518060400160405280600381526020017f4348540000000000000000000000000000000000000000000000000000000000815250905090565b60008060008373ffffffffffffffffffffffffffffffffffffffff1673ffffffffffffffffffffffffffffffffffffffff168152602001908152602001600020549050919050565b8060026000828254610ad89190611093565b92505081905550806000803373ffffffffffffffffffffffffffffffffffffffff1673ffffffffffffffffffffffffffffffffffffffff1681526020019081526020016000206000828254610b2d9190611093565b9250508190555050565b6040518060400160405280600381526020017f434854000000000000000000000000000000000000000000000000000000000081525081565b60008060003373ffffffffffffffffffffffffffffffffffffffff1673ffffffffffffffffffffffffffffffffffffffff16815260200190815260200160002054821115610bbd57600080fd5b610c0e826000803373ffffffffffffffffffffffffffffffffffffffff1673ffffffffffffffffffffffffffffffffffffffff16815260200190815260200160002054610dd990919063ffffffff16565b6000803373ffffffffffffffffffffffffffffffffffffffff1673ffffffffffffffffffffffffffffffffffffffff16815260200190815260200160002081905550610ca1826000808673ffffffffffffffffffffffffffffffffffffffff1673ffffffffffffffffffffffffffffffffffffffff16815260200190815260200160002054610def90919063ffffffff16565b6000808573ffffffffffffffffffffffffffffffffffffffff1673ffffffffffffffffffffffffffffffffffffffff168152602001908152602001600020819055508273ffffffffffffffffffffffffffffffffffffffff163373ffffffffffffffffffffffffffffffffffffffff167fddf252ad1be2c89b69c2b068fc378daa952ba7f163c4a11628f55a4df523b3ef84604051610d409190610feb565b60405180910390a36001905092915050565b6000600160008473ffffffffffffffffffffffffffffffffffffffff1673ffffffffffffffffffffffffffffffffffffffff16815260200190815260200160002060008373ffffffffffffffffffffffffffffffffffffffff1673ffffffffffffffffffffffffffffffffffffffff16815260200190815260200160002054905092915050565b60008183610de79190611093565b905092915050565b60008183610dfd919061103d565b905092915050565b600081359050610e148161118f565b92915050565b600081359050610e29816111a6565b92915050565b600060208284031215610e4157600080fd5b6000610e4f84828501610e05565b91505092915050565b60008060408385031215610e6b57600080fd5b6000610e7985828601610e05565b9250506020610e8a85828601610e05565b9150509250929050565b600080600060608486031215610ea957600080fd5b6000610eb786828701610e05565b9350506020610ec886828701610e05565b9250506040610ed986828701610e1a565b9150509250925092565b60008060408385031215610ef657600080fd5b6000610f0485828601610e05565b9250506020610f1585828601610e1a565b9150509250929050565b600060208284031215610f3157600080fd5b6000610f3f84828501610e1a565b91505092915050565b610f51816110d9565b82525050565b6000610f6282611021565b610f6c818561102c565b9350610f7c81856020860161111c565b610f858161117e565b840191505092915050565b610f9981611105565b82525050565b610fa88161110f565b82525050565b6000602082019050610fc36000830184610f48565b92915050565b60006020820190508181036000830152610fe38184610f57565b905092915050565b60006020820190506110006000830184610f90565b92915050565b600060208201905061101b6000830184610f9f565b92915050565b600081519050919050565b600082825260208201905092915050565b600061104882611105565b915061105383611105565b9250827fffffffffffffffffffffffffffffffffffffffffffffffffffffffffffffffff038211156110885761108761114f565b5b828201905092915050565b600061109e82611105565b91506110a983611105565b9250828210156110bc576110bb61114f565b5b828203905092915050565b60006110d2826110e5565b9050919050565b60008115159050919050565b600073ffffffffffffffffffffffffffffffffffffffff82169050919050565b6000819050919050565b600060ff82169050919050565b60005b8381101561113a57808201518184015260208101905061111f565b83811115611149576000848401525b50505050565b7f4e487b7100000000000000000000000000000000000000000000000000000000600052601160045260246000fd5b6000601f19601f8301169050919050565b611198816110c7565b81146111a357600080fd5b50565b6111af81611105565b81146111ba57600080fd5b5056fea26469706673582212208bffcda8801a8b93c0e067fcbd60efff66d5a08649884312b8dbf1539172b4f064736f6c63430008000033",
  "linkReferences": {},
  "deployedLinkReferences": {}
}