{
  "_format": "hh-sol-artifact-1",
  "contractName": "chainHousing",
  "sourceName": "src/backend/contracts/chainHousing.sol",
  "abi": [
    {
      "inputs": [],
      "stateMutability": "nonpayable",
      "type": "constructor"
    },
    {
      "inputs": [
        {
          "internalType": "address",
          "name": "",
          "type": "address"
        }
      ],
      "name": "Clients",
      "outputs": [
        {
          "internalType": "uint256",
          "name": "token_balance",
          "type": "uint256"
        }
      ],
      "stateMutability": "view",
      "type": "function"
    },
    {
      "inputs": [
        {
          "internalType": "uint256",
          "name": "",
          "type": "uint256"
        }
      ],
      "name": "Properties",
      "outputs": [
        {
          "internalType": "uint256",
          "name": "propertyId",
          "type": "uint256"
        },
        {
          "internalType": "string",
          "name": "name",
          "type": "string"
        },
        {
          "internalType": "string",
          "name": "location",
          "type": "string"
        },
        {
          "internalType": "uint256",
          "name": "baths",
          "type": "uint256"
        },
        {
          "internalType": "uint256",
          "name": "rooms",
          "type": "uint256"
        },
        {
          "internalType": "uint256",
          "name": "m2",
          "type": "uint256"
        },
        {
          "internalType": "uint256",
          "name": "price",
          "type": "uint256"
        },
        {
          "internalType": "bool",
          "name": "forSale",
          "type": "bool"
        },
        {
          "internalType": "bool",
          "name": "available",
          "type": "bool"
        }
      ],
      "stateMutability": "view",
      "type": "function"
    },
    {
      "inputs": [
        {
          "internalType": "uint256",
          "name": "propertyId",
          "type": "uint256"
        },
        {
          "internalType": "string",
          "name": "_newImage",
          "type": "string"
        }
      ],
      "name": "addPropertyImage",
      "outputs": [],
      "stateMutability": "nonpayable",
      "type": "function"
    },
    {
      "inputs": [],
      "name": "balanceOf",
      "outputs": [
        {
          "internalType": "uint256",
          "name": "",
          "type": "uint256"
        }
      ],
      "stateMutability": "view",
      "type": "function"
    },
    {
      "inputs": [
        {
          "internalType": "uint256",
          "name": "_propertyId",
          "type": "uint256"
        },
        {
          "internalType": "uint256",
          "name": "_shares",
          "type": "uint256"
        }
      ],
      "name": "buyPorperty",
      "outputs": [],
      "stateMutability": "nonpayable",
      "type": "function"
    },
    {
      "inputs": [
        {
          "internalType": "uint256",
          "name": "_numTokens",
          "type": "uint256"
        }
      ],
      "name": "buyTokens",
      "outputs": [],
      "stateMutability": "payable",
      "type": "function"
    },
    {
      "inputs": [
        {
          "internalType": "uint256",
          "name": "_propertyId",
          "type": "uint256"
        }
      ],
      "name": "checkProperty",
      "outputs": [
        {
          "internalType": "bool",
          "name": "",
          "type": "bool"
        }
      ],
      "stateMutability": "view",
      "type": "function"
    },
    {
      "inputs": [
        {
          "internalType": "uint256",
          "name": "",
          "type": "uint256"
        },
        {
          "internalType": "address",
          "name": "",
          "type": "address"
        }
      ],
      "name": "clientSharesOfProperty",
      "outputs": [
        {
          "internalType": "uint256",
          "name": "",
          "type": "uint256"
        }
      ],
      "stateMutability": "view",
      "type": "function"
    },
    {
      "inputs": [],
      "name": "contractOwner",
      "outputs": [
        {
          "internalType": "address payable",
          "name": "",
          "type": "address"
        }
      ],
      "stateMutability": "view",
      "type": "function"
    },
    {
      "inputs": [
        {
          "internalType": "uint256",
          "name": "_numTokens",
          "type": "uint256"
        }
      ],
      "name": "createTokens",
      "outputs": [],
      "stateMutability": "nonpayable",
      "type": "function"
    },
    {
      "inputs": [],
      "name": "getAllProperties",
      "outputs": [
        {
          "components": [
            {
              "internalType": "uint256",
              "name": "propertyId",
              "type": "uint256"
            },
            {
              "internalType": "string",
              "name": "name",
              "type": "string"
            },
            {
              "internalType": "string",
              "name": "location",
              "type": "string"
            },
            {
              "internalType": "string[]",
              "name": "images",
              "type": "string[]"
            },
            {
              "internalType": "uint256",
              "name": "baths",
              "type": "uint256"
            },
            {
              "internalType": "uint256",
              "name": "rooms",
              "type": "uint256"
            },
            {
              "internalType": "uint256",
              "name": "m2",
              "type": "uint256"
            },
            {
              "internalType": "uint256",
              "name": "price",
              "type": "uint256"
            },
            {
              "internalType": "bool",
              "name": "forSale",
              "type": "bool"
            },
            {
              "internalType": "bool",
              "name": "available",
              "type": "bool"
            },
            {
              "internalType": "address[]",
              "name": "owners",
              "type": "address[]"
            }
          ],
          "internalType": "struct chainHousing.property[]",
          "name": "",
          "type": "tuple[]"
        }
      ],
      "stateMutability": "view",
      "type": "function"
    },
    {
      "inputs": [
        {
          "internalType": "address",
          "name": "_address",
          "type": "address"
        }
      ],
      "name": "getClientEthBalance",
      "outputs": [
        {
          "internalType": "uint256",
          "name": "",
          "type": "uint256"
        }
      ],
      "stateMutability": "view",
      "type": "function"
    },
    {
      "inputs": [
        {
          "internalType": "uint256",
          "name": "_propId",
          "type": "uint256"
        },
        {
          "internalType": "address",
          "name": "_addr",
          "type": "address"
        }
      ],
      "name": "getClientShares",
      "outputs": [
        {
          "internalType": "uint256",
          "name": "",
          "type": "uint256"
        }
      ],
      "stateMutability": "view",
      "type": "function"
    },
    {
      "inputs": [],
      "name": "getContractAddress",
      "outputs": [
        {
          "internalType": "address",
          "name": "",
          "type": "address"
        }
      ],
      "stateMutability": "view",
      "type": "function"
    },
    {
      "inputs": [],
      "name": "getContractEthBalance",
      "outputs": [
        {
          "internalType": "uint256",
          "name": "",
          "type": "uint256"
        }
      ],
      "stateMutability": "view",
      "type": "function"
    },
    {
      "inputs": [
        {
          "internalType": "uint256",
          "name": "propertyId",
          "type": "uint256"
        }
      ],
      "name": "getPropertyImages",
      "outputs": [
        {
          "internalType": "string[]",
          "name": "",
          "type": "string[]"
        }
      ],
      "stateMutability": "view",
      "type": "function"
    },
    {
      "inputs": [
        {
          "internalType": "uint256",
          "name": "propertyId",
          "type": "uint256"
        }
      ],
      "name": "getPropertyOwners",
      "outputs": [
        {
          "internalType": "address[]",
          "name": "",
          "type": "address[]"
        }
      ],
      "stateMutability": "view",
      "type": "function"
    },
    {
      "inputs": [
        {
          "internalType": "uint256",
          "name": "_tokens",
          "type": "uint256"
        }
      ],
      "name": "getTokenPrice",
      "outputs": [
        {
          "internalType": "uint256",
          "name": "",
          "type": "uint256"
        }
      ],
      "stateMutability": "view",
      "type": "function"
    },
    {
      "inputs": [
        {
          "internalType": "string",
          "name": "_name",
          "type": "string"
        },
        {
          "internalType": "string",
          "name": "_location",
          "type": "string"
        },
        {
          "internalType": "string",
          "name": "_img",
          "type": "string"
        },
        {
          "internalType": "uint256",
          "name": "_baths",
          "type": "uint256"
        },
        {
          "internalType": "uint256",
          "name": "_rooms",
          "type": "uint256"
        },
        {
          "internalType": "uint256",
          "name": "_mts",
          "type": "uint256"
        },
        {
          "internalType": "uint256",
          "name": "_price",
          "type": "uint256"
        }
      ],
      "name": "listProperty",
      "outputs": [],
      "stateMutability": "nonpayable",
      "type": "function"
    },
    {
      "inputs": [],
      "name": "myTokens",
      "outputs": [
        {
          "internalType": "uint256",
          "name": "",
          "type": "uint256"
        }
      ],
      "stateMutability": "view",
      "type": "function"
    },
    {
      "inputs": [],
      "name": "name",
      "outputs": [
        {
          "internalType": "string",
          "name": "",
          "type": "string"
        }
      ],
      "stateMutability": "view",
      "type": "function"
    },
    {
      "inputs": [
        {
          "internalType": "address",
          "name": "owner",
          "type": "address"
        },
        {
          "internalType": "uint256",
          "name": "_propestyId",
          "type": "uint256"
        }
      ],
      "name": "removeOwner",
      "outputs": [],
      "stateMutability": "nonpayable",
      "type": "function"
    },
    {
      "inputs": [
        {
          "internalType": "uint256",
          "name": "_propertyId",
          "type": "uint256"
        }
      ],
      "name": "removeProperty",
      "outputs": [],
      "stateMutability": "nonpayable",
      "type": "function"
    },
    {
      "inputs": [
        {
          "internalType": "uint256",
          "name": "_propertyId",
          "type": "uint256"
        },
        {
          "internalType": "uint256",
          "name": "_shares",
          "type": "uint256"
        }
      ],
      "name": "sellProperty",
      "outputs": [],
      "stateMutability": "nonpayable",
      "type": "function"
    },
    {
      "inputs": [
        {
          "internalType": "uint256",
          "name": "_numTokens",
          "type": "uint256"
        }
      ],
      "name": "sellTokens",
      "outputs": [],
      "stateMutability": "payable",
      "type": "function"
    },
    {
      "inputs": [
        {
          "internalType": "uint256",
          "name": "_newExchange",
          "type": "uint256"
        }
      ],
      "name": "setManualExchange",
      "outputs": [],
      "stateMutability": "nonpayable",
      "type": "function"
    },
    {
      "inputs": [],
      "name": "showPropertiesId",
      "outputs": [
        {
          "internalType": "uint256[]",
          "name": "",
          "type": "uint256[]"
        }
      ],
      "stateMutability": "view",
      "type": "function"
    },
    {
      "inputs": [],
      "name": "symbol",
      "outputs": [
        {
          "internalType": "string",
          "name": "",
          "type": "string"
        }
      ],
      "stateMutability": "view",
      "type": "function"
    },
    {
      "inputs": [
        {
          "internalType": "uint256",
          "name": "_numTokens",
          "type": "uint256"
        }
      ],
      "name": "tokenPrice",
      "outputs": [
        {
          "internalType": "uint256",
          "name": "",
          "type": "uint256"
        }
      ],
      "stateMutability": "view",
      "type": "function"
    }
  ],
  "bytecode": "0x60806040523480156200001157600080fd5b5060006040516200002290620000f0565b6200002e91906200010f565b604051809103906000f0801580156200004b573d6000803e3d6000fd5b506000806101000a81548173ffffffffffffffffffffffffffffffffffffffff021916908373ffffffffffffffffffffffffffffffffffffffff16021790555033600160006101000a81548173ffffffffffffffffffffffffffffffffffffffff021916908373ffffffffffffffffffffffffffffffffffffffff1602179055506601e2083dbb2000600281905550600260048190555060016005819055506200014a565b6112e5806200469683390190565b620001098162000136565b82525050565b6000602082019050620001266000830184620000fe565b92915050565b6000819050919050565b600062000143826200012c565b9050919050565b61453c806200015a6000396000f3fe6080604052600436106101c25760003560e01c8063722713f7116100f7578063bc226dd311610095578063ce606ee011610064578063ce606ee014610666578063d4ddce8a14610691578063e8185549146106ce578063ed46a8cf1461070b576101c2565b8063bc226dd31461059a578063bc43d06f146105d7578063bfd2b3a314610600578063c457fb3714610629576101c2565b806395d89b41116100d157806395d89b41146104c45780639d116884146104ef578063a595673814610534578063af18954414610571576101c2565b8063722713f7146104455780637e1f2bb814610470578063949e8acd14610499576101c2565b806346771db711610164578063547976761161013e5780635479767614610386578063555cd7ae146103c357806359d7752e146103ec5780636c11bcd314610429576101c2565b806346771db7146102f35780634de57d75146103305780635469e5e01461035b576101c2565b806328383422116101a0578063283834221461025857806332a2c5d0146102815780633610724e146102ac5780633d51402c146102c8576101c2565b80630589f50b146101c757806306fdde0314610204578063146412641461022f575b600080fd5b3480156101d357600080fd5b506101ee60048036038101906101e99190613151565b610734565b6040516101fb9190613f7e565b60405180910390f35b34801561021057600080fd5b50610219610755565b6040516102269190613dbc565b60405180910390f35b34801561023b57600080fd5b5061025660048036038101906102519190613394565b6107ff565b005b34801561026457600080fd5b5061027f600480360381019061027a9190613306565b610961565b005b34801561028d57600080fd5b50610296610a15565b6040516102a39190613cac565b60405180910390f35b6102c660048036038101906102c19190613306565b610a1d565b005b3480156102d457600080fd5b506102dd610c22565b6040516102ea9190613d5d565b60405180910390f35b3480156102ff57600080fd5b5061031a60048036038101906103159190613358565b611073565b6040516103279190613f7e565b60405180910390f35b34801561033c57600080fd5b506103456110ce565b6040516103529190613f7e565b60405180910390f35b34801561036757600080fd5b506103706110d6565b60405161037d9190613d7f565b60405180910390f35b34801561039257600080fd5b506103ad60048036038101906103a89190613306565b61112e565b6040516103ba9190613d19565b60405180910390f35b3480156103cf57600080fd5b506103ea60048036038101906103e59190613220565b61122c565b005b3480156103f857600080fd5b50610413600480360381019061040e9190613358565b6116dd565b6040516104209190613f7e565b60405180910390f35b610443600480360381019061043e9190613306565b611702565b005b34801561045157600080fd5b5061045a611920565b6040516104679190613f7e565b60405180910390f35b34801561047c57600080fd5b5061049760048036038101906104929190613306565b6119d1565b005b3480156104a557600080fd5b506104ae611af1565b6040516104bb9190613f7e565b60405180910390f35b3480156104d057600080fd5b506104d9611ba2565b6040516104e69190613dbc565b60405180910390f35b3480156104fb57600080fd5b5061051660048036038101906105119190613306565b611c4c565b60405161052b99989796959493929190613f99565b60405180910390f35b34801561054057600080fd5b5061055b60048036038101906105569190613151565b611dc4565b6040516105689190613f7e565b60405180910390f35b34801561057d57600080fd5b50610598600480360381019061059391906133e8565b611de2565b005b3480156105a657600080fd5b506105c160048036038101906105bc9190613306565b6122fd565b6040516105ce9190613da1565b60405180910390f35b3480156105e357600080fd5b506105fe60048036038101906105f99190613306565b612386565b005b34801561060c57600080fd5b506106276004803603810190610622919061317a565b612521565b005b34801561063557600080fd5b50610650600480360381019061064b9190613306565b6127b2565b60405161065d9190613f7e565b60405180910390f35b34801561067257600080fd5b5061067b6127c9565b6040516106889190613cc7565b60405180910390f35b34801561069d57600080fd5b506106b860048036038101906106b39190613306565b6127ef565b6040516106c59190613f7e565b60405180910390f35b3480156106da57600080fd5b506106f560048036038101906106f09190613306565b612806565b6040516107029190613d3b565b60405180910390f35b34801561071757600080fd5b50610732600480360381019061072d91906133e8565b61294f565b005b60008173ffffffffffffffffffffffffffffffffffffffff16319050919050565b606060008054906101000a900473ffffffffffffffffffffffffffffffffffffffff1673ffffffffffffffffffffffffffffffffffffffff166306fdde036040518163ffffffff1660e01b815260040160006040518083038186803b1580156107bd57600080fd5b505afa1580156107d1573d6000803e3d6000fd5b505050506040513d6000823e3d601f19601f820116820180604052508101906107fa91906131df565b905090565b600160009054906101000a900473ffffffffffffffffffffffffffffffffffffffff16600160009054906101000a900473ffffffffffffffffffffffffffffffffffffffff1673ffffffffffffffffffffffffffffffffffffffff168173ffffffffffffffffffffffffffffffffffffffff16146108b2576040517f08c379a00000000000000000000000000000000000000000000000000000000081526004016108a990613e1e565b60405180910390fd5b60006006600085815260200190815260200160002060000154141561090c576040517f08c379a000000000000000000000000000000000000000000000000000000000815260040161090390613e5e565b60405180910390fd5b600660008481526020019081526020016000206003018290806001815401808255809150506001900390600052602060002001600090919091909150908051906020019061095b929190612dde565b50505050565b33600160009054906101000a900473ffffffffffffffffffffffffffffffffffffffff1673ffffffffffffffffffffffffffffffffffffffff168173ffffffffffffffffffffffffffffffffffffffff16146109f2576040517f08c379a00000000000000000000000000000000000000000000000000000000081526004016109e990613e1e565b60405180910390fd5b60008290506000600190508082610a09919061424f565b60028190555050505050565b600030905090565b6000610a28826127ef565b905080341015610a6d576040517f08c379a0000000000000000000000000000000000000000000000000000000008152600401610a6490613dfe565b60405180910390fd5b60008134610a7b91906142a9565b90503373ffffffffffffffffffffffffffffffffffffffff166108fc829081150290604051600060405180830381858888f19350505050158015610ac3573d6000803e3d6000fd5b506000610ace611920565b905080841115610b13576040517f08c379a0000000000000000000000000000000000000000000000000000000008152600401610b0a90613efe565b60405180910390fd5b60008054906101000a900473ffffffffffffffffffffffffffffffffffffffff1673ffffffffffffffffffffffffffffffffffffffff166353d051b43033876040518463ffffffff1660e01b8152600401610b7093929190613ce2565b602060405180830381600087803b158015610b8a57600080fd5b505af1158015610b9e573d6000803e3d6000fd5b505050506040513d601f19601f82011682018060405250810190610bc291906131b6565b5083600960003373ffffffffffffffffffffffffffffffffffffffff1673ffffffffffffffffffffffffffffffffffffffff1681526020019081526020016000206001016000828254610c1591906141c8565b9250508190555050505050565b60606000600780549050905060008167ffffffffffffffff811115610c70577f4e487b7100000000000000000000000000000000000000000000000000000000600052604160045260246000fd5b604051908082528060200260200182016040528015610ca957816020015b610c96612e64565b815260200190600190039081610c8e5790505b50905060005b8281101561106a57600060078281548110610cf3577f4e487b7100000000000000000000000000000000000000000000000000000000600052603260045260246000fd5b90600052602060002001549050600660008281526020019081526020016000206040518061016001604052908160008201548152602001600182018054610d3990614379565b80601f0160208091040260200160405190810160405280929190818152602001828054610d6590614379565b8015610db25780601f10610d8757610100808354040283529160200191610db2565b820191906000526020600020905b815481529060010190602001808311610d9557829003601f168201915b50505050508152602001600282018054610dcb90614379565b80601f0160208091040260200160405190810160405280929190818152602001828054610df790614379565b8015610e445780601f10610e1957610100808354040283529160200191610e44565b820191906000526020600020905b815481529060010190602001808311610e2757829003601f168201915b5050505050815260200160038201805480602002602001604051908101604052809291908181526020016000905b82821015610f1e578382906000526020600020018054610e9190614379565b80601f0160208091040260200160405190810160405280929190818152602001828054610ebd90614379565b8015610f0a5780601f10610edf57610100808354040283529160200191610f0a565b820191906000526020600020905b815481529060010190602001808311610eed57829003601f168201915b505050505081526020019060010190610e72565b505050508152602001600482015481526020016005820154815260200160068201548152602001600782015481526020016008820160009054906101000a900460ff161515151581526020016008820160019054906101000a900460ff161515151581526020016009820180548060200260200160405190810160405280929190818152602001828054801561100957602002820191906000526020600020905b8160009054906101000a900473ffffffffffffffffffffffffffffffffffffffff1673ffffffffffffffffffffffffffffffffffffffff1681526020019060010190808311610fbf575b50505050508152505083838151811061104b577f4e487b7100000000000000000000000000000000000000000000000000000000600052603260045260246000fd5b6020026020010181905250508080611062906143ab565b915050610caf565b50809250505090565b60006008600084815260200190815260200160002060008373ffffffffffffffffffffffffffffffffffffffff1673ffffffffffffffffffffffffffffffffffffffff16815260200190815260200160002054905092915050565b600047905090565b6060600780548060200260200160405190810160405280929190818152602001828054801561112457602002820191906000526020600020905b815481526020019060010190808311611110575b5050505050905090565b606060006006600084815260200190815260200160002060000154141561118a576040517f08c379a000000000000000000000000000000000000000000000000000000000815260040161118190613e5e565b60405180910390fd5b6006600083815260200190815260200160002060090180548060200260200160405190810160405280929190818152602001828054801561122057602002820191906000526020600020905b8160009054906101000a900473ffffffffffffffffffffffffffffffffffffffff1673ffffffffffffffffffffffffffffffffffffffff16815260200190600101908083116111d6575b50505050509050919050565b600160009054906101000a900473ffffffffffffffffffffffffffffffffffffffff16600160009054906101000a900473ffffffffffffffffffffffffffffffffffffffff1673ffffffffffffffffffffffffffffffffffffffff168173ffffffffffffffffffffffffffffffffffffffff16146112df576040517f08c379a00000000000000000000000000000000000000000000000000000000081526004016112d690613e1e565b60405180910390fd5b600360008154809291906112f2906143ab565b9190505550600060405180610160016040528060035481526020018a8152602001898152602001600167ffffffffffffffff81111561135a577f4e487b7100000000000000000000000000000000000000000000000000000000600052604160045260246000fd5b60405190808252806020026020018201604052801561138d57816020015b60608152602001906001900390816113785790505b508152602001878152602001868152602001858152602001848152602001600115158152602001600115158152602001600167ffffffffffffffff8111156113fe577f4e487b7100000000000000000000000000000000000000000000000000000000600052604160045260246000fd5b60405190808252806020026020018201604052801561142c5781602001602082028036833780820191505090505b508152509050868160600151600081518110611471577f4e487b7100000000000000000000000000000000000000000000000000000000600052603260045260246000fd5b6020026020010181905250600160009054906101000a900473ffffffffffffffffffffffffffffffffffffffff168161014001516000815181106114de577f4e487b7100000000000000000000000000000000000000000000000000000000600052603260045260246000fd5b602002602001019073ffffffffffffffffffffffffffffffffffffffff16908173ffffffffffffffffffffffffffffffffffffffff1681525050806006600083600001518152602001908152602001600020600082015181600001556020820151816001019080519060200190611556929190612dde565b506040820151816002019080519060200190611573929190612dde565b506060820151816003019080519060200190611590929190612ec2565b506080820151816004015560a0820151816005015560c0820151816006015560e082015181600701556101008201518160080160006101000a81548160ff0219169083151502179055506101208201518160080160016101000a81548160ff021916908315150217905550610140820151816009019080519060200190611618929190612f22565b50905050600781600001519080600181540180825580915050600190039060005260206000200160009091909190915055606460086000836000015181526020019081526020016000206000600160009054906101000a900473ffffffffffffffffffffffffffffffffffffffff1673ffffffffffffffffffffffffffffffffffffffff1673ffffffffffffffffffffffffffffffffffffffff168152602001908152602001600020819055506116d28160e001516119d1565b505050505050505050565b6008602052816000526040600020602052806000526040600020600091509150505481565b60008111611745576040517f08c379a000000000000000000000000000000000000000000000000000000000815260040161173c90613f1e565b60405180910390fd5b8061174e611af1565b101561178f576040517f08c379a000000000000000000000000000000000000000000000000000000000815260040161178690613e3e565b60405180910390fd5b600061179a826127ef565b905060006064600554836117ae919061424f565b6117b8919061421e565b9050600081836117c891906142a9565b905060008054906101000a900473ffffffffffffffffffffffffffffffffffffffff1673ffffffffffffffffffffffffffffffffffffffff166353d051b43330876040518463ffffffff1660e01b815260040161182793929190613ce2565b602060405180830381600087803b15801561184157600080fd5b505af1158015611855573d6000803e3d6000fd5b505050506040513d601f19601f8201168201806040525081019061187991906131b6565b503373ffffffffffffffffffffffffffffffffffffffff166108fc829081150290604051600060405180830381858888f193505050501580156118c0573d6000803e3d6000fd5b5083600960003373ffffffffffffffffffffffffffffffffffffffff1673ffffffffffffffffffffffffffffffffffffffff168152602001908152602001600020600101600082825461191391906142a9565b9250508190555050505050565b60008060009054906101000a900473ffffffffffffffffffffffffffffffffffffffff1673ffffffffffffffffffffffffffffffffffffffff166370a08231306040518263ffffffff1660e01b815260040161197c9190613cac565b60206040518083038186803b15801561199457600080fd5b505afa1580156119a8573d6000803e3d6000fd5b505050506040513d601f19601f820116820180604052508101906119cc919061332f565b905090565b33600160009054906101000a900473ffffffffffffffffffffffffffffffffffffffff1673ffffffffffffffffffffffffffffffffffffffff168173ffffffffffffffffffffffffffffffffffffffff1614611a62576040517f08c379a0000000000000000000000000000000000000000000000000000000008152600401611a5990613e1e565b60405180910390fd5b60008054906101000a900473ffffffffffffffffffffffffffffffffffffffff1673ffffffffffffffffffffffffffffffffffffffff16634ee22adf836040518263ffffffff1660e01b8152600401611abb9190613f7e565b600060405180830381600087803b158015611ad557600080fd5b505af1158015611ae9573d6000803e3d6000fd5b505050505050565b60008060009054906101000a900473ffffffffffffffffffffffffffffffffffffffff1673ffffffffffffffffffffffffffffffffffffffff166370a08231336040518263ffffffff1660e01b8152600401611b4d9190613cac565b60206040518083038186803b158015611b6557600080fd5b505afa158015611b79573d6000803e3d6000fd5b505050506040513d601f19601f82011682018060405250810190611b9d919061332f565b905090565b606060008054906101000a900473ffffffffffffffffffffffffffffffffffffffff1673ffffffffffffffffffffffffffffffffffffffff166395d89b416040518163ffffffff1660e01b815260040160006040518083038186803b158015611c0a57600080fd5b505afa158015611c1e573d6000803e3d6000fd5b505050506040513d6000823e3d601f19601f82011682018060405250810190611c4791906131df565b905090565b6006602052806000526040600020600091509050806000015490806001018054611c7590614379565b80601f0160208091040260200160405190810160405280929190818152602001828054611ca190614379565b8015611cee5780601f10611cc357610100808354040283529160200191611cee565b820191906000526020600020905b815481529060010190602001808311611cd157829003601f168201915b505050505090806002018054611d0390614379565b80601f0160208091040260200160405190810160405280929190818152602001828054611d2f90614379565b8015611d7c5780601f10611d5157610100808354040283529160200191611d7c565b820191906000526020600020905b815481529060010190602001808311611d5f57829003601f168201915b5050505050908060040154908060050154908060060154908060070154908060080160009054906101000a900460ff16908060080160019054906101000a900460ff16905089565b60096020528060005260406000206000915090508060010154905081565b611deb826122fd565b611e2a576040517f08c379a0000000000000000000000000000000000000000000000000000000008152600401611e2190613e9e565b60405180910390fd5b6006600083815260200190815260200160002060080160019054906101000a900460ff16611e8d576040517f08c379a0000000000000000000000000000000000000000000000000000000008152600401611e8490613f5e565b60405180910390fd5b6006600083815260200190815260200160002060080160009054906101000a900460ff16611ef0576040517f08c379a0000000000000000000000000000000000000000000000000000000008152600401611ee790613dde565b60405180910390fd5b60006064826006600086815260200190815260200160002060070154611f16919061424f565b611f20919061421e565b905080611f2b611af1565b1015611f6c576040517f08c379a0000000000000000000000000000000000000000000000000000000008152600401611f6390613ede565b60405180910390fd5b60008054906101000a900473ffffffffffffffffffffffffffffffffffffffff1673ffffffffffffffffffffffffffffffffffffffff166353d051b43330846040518463ffffffff1660e01b8152600401611fc993929190613ce2565b602060405180830381600087803b158015611fe357600080fd5b505af1158015611ff7573d6000803e3d6000fd5b505050506040513d601f19601f8201168201806040525081019061201b91906131b6565b5060066000848152602001908152602001600020600901339080600181540180825580915050600190039060005260206000200160009091909190916101000a81548173ffffffffffffffffffffffffffffffffffffffff021916908373ffffffffffffffffffffffffffffffffffffffff160217905550816008600085815260200190815260200160002060003373ffffffffffffffffffffffffffffffffffffffff1673ffffffffffffffffffffffffffffffffffffffff16815260200190815260200160002060008282546120f391906141c8565b925050819055506000600860008581526020019081526020016000206000600160009054906101000a900473ffffffffffffffffffffffffffffffffffffffff1673ffffffffffffffffffffffffffffffffffffffff1673ffffffffffffffffffffffffffffffffffffffff168152602001908152602001600020549050828161217d91906142a9565b600860008681526020019081526020016000206000600160009054906101000a900473ffffffffffffffffffffffffffffffffffffffff1673ffffffffffffffffffffffffffffffffffffffff1673ffffffffffffffffffffffffffffffffffffffff1681526020019081526020016000208190555081600960003373ffffffffffffffffffffffffffffffffffffffff1673ffffffffffffffffffffffffffffffffffffffff168152602001908152602001600020600101600082825461224591906142a9565b925050819055506000600860008681526020019081526020016000206000600160009054906101000a900473ffffffffffffffffffffffffffffffffffffffff1673ffffffffffffffffffffffffffffffffffffffff1673ffffffffffffffffffffffffffffffffffffffff1681526020019081526020016000205414156122f75760006006600086815260200190815260200160002060080160006101000a81548160ff0219169083151502179055505b50505050565b600080600090505b60078054905081101561237b57826007828154811061234d577f4e487b7100000000000000000000000000000000000000000000000000000000600052603260045260246000fd5b90600052602060002001541415612368576001915050612381565b8080612373906143ab565b915050612305565b50600090505b919050565b600160009054906101000a900473ffffffffffffffffffffffffffffffffffffffff16600160009054906101000a900473ffffffffffffffffffffffffffffffffffffffff1673ffffffffffffffffffffffffffffffffffffffff168173ffffffffffffffffffffffffffffffffffffffff1614612439576040517f08c379a000000000000000000000000000000000000000000000000000000000815260040161243090613e1e565b60405180910390fd5b6064600860008481526020019081526020016000206000600160009054906101000a900473ffffffffffffffffffffffffffffffffffffffff1673ffffffffffffffffffffffffffffffffffffffff1673ffffffffffffffffffffffffffffffffffffffff16815260200190815260200160002054146124ee576040517f08c379a00000000000000000000000000000000000000000000000000000000081526004016124e590613f3e565b60405180910390fd5b60006006600084815260200190815260200160002060080160016101000a81548160ff0219169083151502179055505050565b60005b6001600660008481526020019081526020016000206009018054905061254a91906142a9565b81101561272c578273ffffffffffffffffffffffffffffffffffffffff166006600084815260200190815260200160002060090182815481106125b6577f4e487b7100000000000000000000000000000000000000000000000000000000600052603260045260246000fd5b9060005260206000200160009054906101000a900473ffffffffffffffffffffffffffffffffffffffff1673ffffffffffffffffffffffffffffffffffffffff161415612719576006600083815260200190815260200160002060090160018261262091906141c8565b81548110612657577f4e487b7100000000000000000000000000000000000000000000000000000000600052603260045260246000fd5b9060005260206000200160009054906101000a900473ffffffffffffffffffffffffffffffffffffffff166006600084815260200190815260200160002060090182815481106126d0577f4e487b7100000000000000000000000000000000000000000000000000000000600052603260045260246000fd5b9060005260206000200160006101000a81548173ffffffffffffffffffffffffffffffffffffffff021916908373ffffffffffffffffffffffffffffffffffffffff1602179055505b8080612724906143ab565b915050612524565b5060066000828152602001908152602001600020600901805480612779577f4e487b7100000000000000000000000000000000000000000000000000000000600052603160045260246000fd5b6001900381819060005260206000200160006101000a81549073ffffffffffffffffffffffffffffffffffffffff021916905590555050565b6000600254826127c2919061424f565b9050919050565b600160009054906101000a900473ffffffffffffffffffffffffffffffffffffffff1681565b6000600254826127ff919061424f565b9050919050565b6060600060066000848152602001908152602001600020600001541415612862576040517f08c379a000000000000000000000000000000000000000000000000000000000815260040161285990613e5e565b60405180910390fd5b60066000838152602001908152602001600020600301805480602002602001604051908101604052809291908181526020016000905b828210156129445783829060005260206000200180546128b790614379565b80601f01602080910402602001604051908101604052809291908181526020018280546128e390614379565b80156129305780601f1061290557610100808354040283529160200191612930565b820191906000526020600020905b81548152906001019060200180831161291357829003601f168201915b505050505081526020019060010190612898565b505050509050919050565b60006008600084815260200190815260200160002060003373ffffffffffffffffffffffffffffffffffffffff1673ffffffffffffffffffffffffffffffffffffffff168152602001908152602001600020549050600081116129e7576040517f08c379a00000000000000000000000000000000000000000000000000000000081526004016129de90613ebe565b60405180910390fd5b81811015612a2a576040517f08c379a0000000000000000000000000000000000000000000000000000000008152600401612a2190613e7e565b60405180910390fd5b60006064836006600087815260200190815260200160002060070154612a50919061424f565b612a5a919061421e565b90506000606460045483612a6e919061424f565b612a78919061421e565b90506001811015612a8857600190505b60008183612a9691906142a9565b9050846008600088815260200190815260200160002060003373ffffffffffffffffffffffffffffffffffffffff1673ffffffffffffffffffffffffffffffffffffffff1681526020019081526020016000206000828254612af891906142a9565b9250508190555084600860008881526020019081526020016000206000600160009054906101000a900473ffffffffffffffffffffffffffffffffffffffff1673ffffffffffffffffffffffffffffffffffffffff1673ffffffffffffffffffffffffffffffffffffffff1681526020019081526020016000206000828254612b8191906141c8565b9250508190555060008054906101000a900473ffffffffffffffffffffffffffffffffffffffff1673ffffffffffffffffffffffffffffffffffffffff166353d051b43033846040518463ffffffff1660e01b8152600401612be593929190613ce2565b602060405180830381600087803b158015612bff57600080fd5b505af1158015612c13573d6000803e3d6000fd5b505050506040513d601f19601f82011682018060405250810190612c3791906131b6565b5080600960003373ffffffffffffffffffffffffffffffffffffffff1673ffffffffffffffffffffffffffffffffffffffff1681526020019081526020016000206001016000828254612c8a91906141c8565b9250508190555060008015612d1157506000600860008881526020019081526020016000206000600160009054906101000a900473ffffffffffffffffffffffffffffffffffffffff1673ffffffffffffffffffffffffffffffffffffffff1673ffffffffffffffffffffffffffffffffffffffff16815260200190815260200160002054115b6006600088815260200190815260200160002060080160006101000a81548160ff021916908315150217905515612d725760016006600088815260200190815260200160002060080160006101000a81548160ff0219169083151502179055505b60016008600088815260200190815260200160002060003373ffffffffffffffffffffffffffffffffffffffff1673ffffffffffffffffffffffffffffffffffffffff168152602001908152602001600020541015612dd657612dd53387612521565b5b505050505050565b828054612dea90614379565b90600052602060002090601f016020900481019282612e0c5760008555612e53565b82601f10612e2557805160ff1916838001178555612e53565b82800160010185558215612e53579182015b82811115612e52578251825591602001919060010190612e37565b5b509050612e609190612fac565b5090565b6040518061016001604052806000815260200160608152602001606081526020016060815260200160008152602001600081526020016000815260200160008152602001600015158152602001600015158152602001606081525090565b828054828255906000526020600020908101928215612f11579160200282015b82811115612f10578251829080519060200190612f00929190612dde565b5091602001919060010190612ee2565b5b509050612f1e9190612fc9565b5090565b828054828255906000526020600020908101928215612f9b579160200282015b82811115612f9a5782518260006101000a81548173ffffffffffffffffffffffffffffffffffffffff021916908373ffffffffffffffffffffffffffffffffffffffff16021790555091602001919060010190612f42565b5b509050612fa89190612fac565b5090565b5b80821115612fc5576000816000905550600101612fad565b5090565b5b80821115612fe95760008181612fe09190612fed565b50600101612fca565b5090565b508054612ff990614379565b6000825580601f1061300b575061302a565b601f0160209004906000526020600020908101906130299190612fac565b5b50565b600061304061303b84614065565b614034565b90508281526020810184848401111561305857600080fd5b613063848285614337565b509392505050565b600061307e61307984614065565b614034565b90508281526020810184848401111561309657600080fd5b6130a1848285614346565b509392505050565b6000813590506130b8816144c1565b92915050565b6000815190506130cd816144d8565b92915050565b600082601f8301126130e457600080fd5b81356130f484826020860161302d565b91505092915050565b600082601f83011261310e57600080fd5b815161311e84826020860161306b565b91505092915050565b600081359050613136816144ef565b92915050565b60008151905061314b816144ef565b92915050565b60006020828403121561316357600080fd5b6000613171848285016130a9565b91505092915050565b6000806040838503121561318d57600080fd5b600061319b858286016130a9565b92505060206131ac85828601613127565b9150509250929050565b6000602082840312156131c857600080fd5b60006131d6848285016130be565b91505092915050565b6000602082840312156131f157600080fd5b600082015167ffffffffffffffff81111561320b57600080fd5b613217848285016130fd565b91505092915050565b600080600080600080600060e0888a03121561323b57600080fd5b600088013567ffffffffffffffff81111561325557600080fd5b6132618a828b016130d3565b975050602088013567ffffffffffffffff81111561327e57600080fd5b61328a8a828b016130d3565b965050604088013567ffffffffffffffff8111156132a757600080fd5b6132b38a828b016130d3565b95505060606132c48a828b01613127565b94505060806132d58a828b01613127565b93505060a06132e68a828b01613127565b92505060c06132f78a828b01613127565b91505092959891949750929550565b60006020828403121561331857600080fd5b600061332684828501613127565b91505092915050565b60006020828403121561334157600080fd5b600061334f8482850161313c565b91505092915050565b6000806040838503121561336b57600080fd5b600061337985828601613127565b925050602061338a858286016130a9565b9150509250929050565b600080604083850312156133a757600080fd5b60006133b585828601613127565b925050602083013567ffffffffffffffff8111156133d257600080fd5b6133de858286016130d3565b9150509250929050565b600080604083850312156133fb57600080fd5b600061340985828601613127565b925050602061341a85828601613127565b9150509250929050565b6000613430838361348b565b60208301905092915050565b60006134488383613740565b905092915050565b600061345c8383613b8a565b905092915050565b60006134708383613c8e565b60208301905092915050565b613485816142ef565b82525050565b613494816142dd565b82525050565b6134a3816142dd565b82525050565b60006134b4826140d5565b6134be8185614140565b93506134c983614095565b8060005b838110156134fa5781516134e18882613424565b97506134ec8361410c565b9250506001810190506134cd565b5085935050505092915050565b6000613512826140d5565b61351c8185614151565b935061352783614095565b8060005b8381101561355857815161353f8882613424565b975061354a8361410c565b92505060018101905061352b565b5085935050505092915050565b6000613570826140e0565b61357a8185614162565b93508360208202850161358c856140a5565b8060005b858110156135c857848403895281516135a9858261343c565b94506135b483614119565b925060208a01995050600181019050613590565b50829750879550505050505092915050565b60006135e5826140e0565b6135ef8185614173565b935083602082028501613601856140a5565b8060005b8581101561363d578484038952815161361e858261343c565b945061362983614119565b925060208a01995050600181019050613605565b50829750879550505050505092915050565b600061365a826140eb565b6136648185614184565b935083602082028501613676856140b5565b8060005b858110156136b257848403895281516136938582613450565b945061369e83614126565b925060208a0199505060018101905061367a565b50829750879550505050505092915050565b60006136cf826140f6565b6136d98185614195565b93506136e4836140c5565b8060005b838110156137155781516136fc8882613464565b975061370783614133565b9250506001810190506136e8565b5085935050505092915050565b61372b81614301565b82525050565b61373a81614301565b82525050565b600061374b82614101565b61375581856141a6565b9350613765818560208601614346565b61376e816144b0565b840191505092915050565b600061378482614101565b61378e81856141b7565b935061379e818560208601614346565b6137a7816144b0565b840191505092915050565b60006137bf6018836141b7565b91507f50726f7065727479206973206e6f7420666f722073616c6500000000000000006000830152602082019050919050565b60006137ff6012836141b7565b91507f496e737566696369656e742066756e64732e00000000000000000000000000006000830152602082019050919050565b600061383f602c836141b7565b91507f4f6e6c7920636f6e7472616374206f776e65722063616e20706572666f726d2060008301527f7468697320616374696f6e2e00000000000000000000000000000000000000006020830152604082019050919050565b60006138a5601b836141b7565b91507f596f7520646f6e74206861766520656e6f75676820746f6b656e7300000000006000830152602082019050919050565b60006138e56017836141b7565b91507f50726f706572747920646f6573206e6f742065786973740000000000000000006000830152602082019050919050565b6000613925601f836141b7565b91507f596f7520646f6e2774206f776e2074686f7365206d616e7920736861726573006000830152602082019050919050565b60006139656030836141b7565b91507f5468652070726f706572747920494420697320696e636f7272656374206f722060008301527f646f6573206e6f746520657869737473000000000000000000000000000000006020830152604082019050919050565b60006139cb601b836141b7565b91507f596f7520646f6e2774206f776e20746869732070726f706572747900000000006000830152602082019050919050565b6000613a0b601c836141b7565b91507f596f7520646f6e2774206861766520656e6f75676820746f6b656e73000000006000830152602082019050919050565b6000613a4b601b836141b7565b91507f4e6f7420656e6f75676820746f6b656e7320617661696c61626c6500000000006000830152602082019050919050565b6000613a8b6010836141b7565b91507f4e6f20746f6b657320746f2073656c6c000000000000000000000000000000006000830152602082019050919050565b6000613acb602f836141b7565b91507f546865726520617265206f7468657220696e766573746f72732074686174206f60008301527f776e73207468652070726f7065727900000000000000000000000000000000006020830152604082019050919050565b6000613b31602a836141b7565b91507f546869732070726f706572747920686173206265656e2072656d6f766564206660008301527f726f6d206d61726b6574000000000000000000000000000000000000000000006020830152604082019050919050565b600061016083016000830151613ba36000860182613c8e565b5060208301518482036020860152613bbb8282613740565b91505060408301518482036040860152613bd58282613740565b91505060608301518482036060860152613bef8282613565565b9150506080830151613c046080860182613c8e565b5060a0830151613c1760a0860182613c8e565b5060c0830151613c2a60c0860182613c8e565b5060e0830151613c3d60e0860182613c8e565b50610100830151613c52610100860182613722565b50610120830151613c67610120860182613722565b50610140830151848203610140860152613c8182826134a9565b9150508091505092915050565b613c978161432d565b82525050565b613ca68161432d565b82525050565b6000602082019050613cc1600083018461349a565b92915050565b6000602082019050613cdc600083018461347c565b92915050565b6000606082019050613cf7600083018661349a565b613d04602083018561349a565b613d116040830184613c9d565b949350505050565b60006020820190508181036000830152613d338184613507565b905092915050565b60006020820190508181036000830152613d5581846135da565b905092915050565b60006020820190508181036000830152613d77818461364f565b905092915050565b60006020820190508181036000830152613d9981846136c4565b905092915050565b6000602082019050613db66000830184613731565b92915050565b60006020820190508181036000830152613dd68184613779565b905092915050565b60006020820190508181036000830152613df7816137b2565b9050919050565b60006020820190508181036000830152613e17816137f2565b9050919050565b60006020820190508181036000830152613e3781613832565b9050919050565b60006020820190508181036000830152613e5781613898565b9050919050565b60006020820190508181036000830152613e77816138d8565b9050919050565b60006020820190508181036000830152613e9781613918565b9050919050565b60006020820190508181036000830152613eb781613958565b9050919050565b60006020820190508181036000830152613ed7816139be565b9050919050565b60006020820190508181036000830152613ef7816139fe565b9050919050565b60006020820190508181036000830152613f1781613a3e565b9050919050565b60006020820190508181036000830152613f3781613a7e565b9050919050565b60006020820190508181036000830152613f5781613abe565b9050919050565b60006020820190508181036000830152613f7781613b24565b9050919050565b6000602082019050613f936000830184613c9d565b92915050565b600061012082019050613faf600083018c613c9d565b8181036020830152613fc1818b613779565b90508181036040830152613fd5818a613779565b9050613fe46060830189613c9d565b613ff16080830188613c9d565b613ffe60a0830187613c9d565b61400b60c0830186613c9d565b61401860e0830185613731565b614026610100830184613731565b9a9950505050505050505050565b6000604051905081810181811067ffffffffffffffff8211171561405b5761405a614481565b5b8060405250919050565b600067ffffffffffffffff8211156140805761407f614481565b5b601f19601f8301169050602081019050919050565b6000819050602082019050919050565b6000819050602082019050919050565b6000819050602082019050919050565b6000819050602082019050919050565b600081519050919050565b600081519050919050565b600081519050919050565b600081519050919050565b600081519050919050565b6000602082019050919050565b6000602082019050919050565b6000602082019050919050565b6000602082019050919050565b600082825260208201905092915050565b600082825260208201905092915050565b600082825260208201905092915050565b600082825260208201905092915050565b600082825260208201905092915050565b600082825260208201905092915050565b600082825260208201905092915050565b600082825260208201905092915050565b60006141d38261432d565b91506141de8361432d565b9250827fffffffffffffffffffffffffffffffffffffffffffffffffffffffffffffffff03821115614213576142126143f4565b5b828201905092915050565b60006142298261432d565b91506142348361432d565b92508261424457614243614423565b5b828204905092915050565b600061425a8261432d565b91506142658361432d565b9250817fffffffffffffffffffffffffffffffffffffffffffffffffffffffffffffffff048311821515161561429e5761429d6143f4565b5b828202905092915050565b60006142b48261432d565b91506142bf8361432d565b9250828210156142d2576142d16143f4565b5b828203905092915050565b60006142e88261430d565b9050919050565b60006142fa8261430d565b9050919050565b60008115159050919050565b600073ffffffffffffffffffffffffffffffffffffffff82169050919050565b6000819050919050565b82818337600083830152505050565b60005b83811015614364578082015181840152602081019050614349565b83811115614373576000848401525b50505050565b6000600282049050600182168061439157607f821691505b602082108114156143a5576143a4614452565b5b50919050565b60006143b68261432d565b91507fffffffffffffffffffffffffffffffffffffffffffffffffffffffffffffffff8214156143e9576143e86143f4565b5b600182019050919050565b7f4e487b7100000000000000000000000000000000000000000000000000000000600052601160045260246000fd5b7f4e487b7100000000000000000000000000000000000000000000000000000000600052601260045260246000fd5b7f4e487b7100000000000000000000000000000000000000000000000000000000600052602260045260246000fd5b7f4e487b7100000000000000000000000000000000000000000000000000000000600052604160045260246000fd5b6000601f19601f8301169050919050565b6144ca816142dd565b81146144d557600080fd5b50565b6144e181614301565b81146144ec57600080fd5b50565b6144f88161432d565b811461450357600080fd5b5056fea2646970667358221220d13763a88c2d135d86775d3c10c58025b6e7beaf00f0a2b80300e4143198d63164736f6c63430008000033608060405234801561001057600080fd5b506040516112e53803806112e583398181016040528101906100329190610099565b806002819055506002546000803373ffffffffffffffffffffffffffffffffffffffff1673ffffffffffffffffffffffffffffffffffffffff16815260200190815260200160002081905550506100e3565b600081519050610093816100cc565b92915050565b6000602082840312156100ab57600080fd5b60006100b984828501610084565b91505092915050565b6000819050919050565b6100d5816100c2565b81146100e057600080fd5b50565b6111f3806100f26000396000f3fe608060405234801561001057600080fd5b50600436106100ea5760003560e01c806353d051b41161008c5780637ec867e0116100665780637ec867e01461026157806395d89b411461027d578063a9059cbb1461029b578063dd62ed3e146102cb576100ea565b806353d051b4146101e35780636cf0166a1461021357806370a0823114610231576100ea565b806318160ddd116100c857806318160ddd1461015b57806323b872dd14610179578063313ce567146101a95780634ee22adf146101c7576100ea565b806304d2def8146100ef57806306fdde031461010d578063095ea7b31461012b575b600080fd5b6100f76102fb565b6040516101049190610fc9565b60405180910390f35b610115610338565b6040516101229190610fc9565b60405180910390f35b61014560048036038101906101409190610ee3565b610371565b6040516101529190610fae565b60405180910390f35b610163610463565b6040516101709190610feb565b60405180910390f35b610193600480360381019061018e9190610e94565b61046d565b6040516101a09190610fae565b60405180910390f35b6101b16107e8565b6040516101be9190611006565b60405180910390f35b6101e160048036038101906101dc9190610f1f565b6107ed565b005b6101fd60048036038101906101f89190610e94565b61085e565b60405161020a9190610fae565b60405180910390f35b61021b610a41565b6040516102289190610fc9565b60405180910390f35b61024b60048036038101906102469190610e2f565b610a7e565b6040516102589190610feb565b60405180910390f35b61027b60048036038101906102769190610f1f565b610ac6565b005b610285610b37565b6040516102929190610fc9565b60405180910390f35b6102b560048036038101906102b09190610ee3565b610b70565b6040516102c29190610fae565b60405180910390f35b6102e560048036038101906102e09190610e58565b610d52565b6040516102f29190610feb565b60405180910390f35b60606040518060400160405280600a81526020017f434841494e544f4b454e00000000000000000000000000000000000000000000815250905090565b6040518060400160405280600a81526020017f434841494e544f4b454e0000000000000000000000000000000000000000000081525081565b600081600160003373ffffffffffffffffffffffffffffffffffffffff1673ffffffffffffffffffffffffffffffffffffffff16815260200190815260200160002060008573ffffffffffffffffffffffffffffffffffffffff1673ffffffffffffffffffffffffffffffffffffffff168152602001908152602001600020819055508273ffffffffffffffffffffffffffffffffffffffff163373ffffffffffffffffffffffffffffffffffffffff167f8c5be1e5ebec7d5bd14f71427d1e84f3dd0314c0f7b2291e5b200ac8c7c3b925846040516104519190610feb565b60405180910390a36001905092915050565b6000600254905090565b60008060008573ffffffffffffffffffffffffffffffffffffffff1673ffffffffffffffffffffffffffffffffffffffff168152602001908152602001600020548211156104ba57600080fd5b600160008573ffffffffffffffffffffffffffffffffffffffff1673ffffffffffffffffffffffffffffffffffffffff16815260200190815260200160002060003373ffffffffffffffffffffffffffffffffffffffff1673ffffffffffffffffffffffffffffffffffffffff1681526020019081526020016000205482111561054357600080fd5b610594826000808773ffffffffffffffffffffffffffffffffffffffff1673ffffffffffffffffffffffffffffffffffffffff16815260200190815260200160002054610dd990919063ffffffff16565b6000808673ffffffffffffffffffffffffffffffffffffffff1673ffffffffffffffffffffffffffffffffffffffff1681526020019081526020016000208190555061066582600160008773ffffffffffffffffffffffffffffffffffffffff1673ffffffffffffffffffffffffffffffffffffffff16815260200190815260200160002060003373ffffffffffffffffffffffffffffffffffffffff1673ffffffffffffffffffffffffffffffffffffffff16815260200190815260200160002054610dd990919063ffffffff16565b600160008673ffffffffffffffffffffffffffffffffffffffff1673ffffffffffffffffffffffffffffffffffffffff16815260200190815260200160002060003373ffffffffffffffffffffffffffffffffffffffff1673ffffffffffffffffffffffffffffffffffffffff16815260200190815260200160002081905550610736826000808673ffffffffffffffffffffffffffffffffffffffff1673ffffffffffffffffffffffffffffffffffffffff16815260200190815260200160002054610def90919063ffffffff16565b6000808573ffffffffffffffffffffffffffffffffffffffff1673ffffffffffffffffffffffffffffffffffffffff168152602001908152602001600020819055508273ffffffffffffffffffffffffffffffffffffffff168473ffffffffffffffffffffffffffffffffffffffff167fddf252ad1be2c89b69c2b068fc378daa952ba7f163c4a11628f55a4df523b3ef846040516107d59190610feb565b60405180910390a3600190509392505050565b600281565b80600260008282546107ff919061103d565b92505081905550806000803373ffffffffffffffffffffffffffffffffffffffff1673ffffffffffffffffffffffffffffffffffffffff1681526020019081526020016000206000828254610854919061103d565b9250508190555050565b60008060008573ffffffffffffffffffffffffffffffffffffffff1673ffffffffffffffffffffffffffffffffffffffff168152602001908152602001600020548211156108ab57600080fd5b6108fc826000808773ffffffffffffffffffffffffffffffffffffffff1673ffffffffffffffffffffffffffffffffffffffff16815260200190815260200160002054610dd990919063ffffffff16565b6000808673ffffffffffffffffffffffffffffffffffffffff1673ffffffffffffffffffffffffffffffffffffffff1681526020019081526020016000208190555061098f826000808673ffffffffffffffffffffffffffffffffffffffff1673ffffffffffffffffffffffffffffffffffffffff16815260200190815260200160002054610def90919063ffffffff16565b6000808573ffffffffffffffffffffffffffffffffffffffff1673ffffffffffffffffffffffffffffffffffffffff168152602001908152602001600020819055508273ffffffffffffffffffffffffffffffffffffffff168473ffffffffffffffffffffffffffffffffffffffff167fddf252ad1be2c89b69c2b068fc378daa952ba7f163c4a11628f55a4df523b3ef84604051610a2e9190610feb565b60405180910390a3600190509392505050565b60606040518060400160405280600381526020017f4348540000000000000000000000000000000000000000000000000000000000815250905090565b60008060008373ffffffffffffffffffffffffffffffffffffffff1673ffffffffffffffffffffffffffffffffffffffff168152602001908152602001600020549050919050565b8060026000828254610ad89190611093565b92505081905550806000803373ffffffffffffffffffffffffffffffffffffffff1673ffffffffffffffffffffffffffffffffffffffff1681526020019081526020016000206000828254610b2d9190611093565b9250508190555050565b6040518060400160405280600381526020017f434854000000000000000000000000000000000000000000000000000000000081525081565b60008060003373ffffffffffffffffffffffffffffffffffffffff1673ffffffffffffffffffffffffffffffffffffffff16815260200190815260200160002054821115610bbd57600080fd5b610c0e826000803373ffffffffffffffffffffffffffffffffffffffff1673ffffffffffffffffffffffffffffffffffffffff16815260200190815260200160002054610dd990919063ffffffff16565b6000803373ffffffffffffffffffffffffffffffffffffffff1673ffffffffffffffffffffffffffffffffffffffff16815260200190815260200160002081905550610ca1826000808673ffffffffffffffffffffffffffffffffffffffff1673ffffffffffffffffffffffffffffffffffffffff16815260200190815260200160002054610def90919063ffffffff16565b6000808573ffffffffffffffffffffffffffffffffffffffff1673ffffffffffffffffffffffffffffffffffffffff168152602001908152602001600020819055508273ffffffffffffffffffffffffffffffffffffffff163373ffffffffffffffffffffffffffffffffffffffff167fddf252ad1be2c89b69c2b068fc378daa952ba7f163c4a11628f55a4df523b3ef84604051610d409190610feb565b60405180910390a36001905092915050565b6000600160008473ffffffffffffffffffffffffffffffffffffffff1673ffffffffffffffffffffffffffffffffffffffff16815260200190815260200160002060008373ffffffffffffffffffffffffffffffffffffffff1673ffffffffffffffffffffffffffffffffffffffff16815260200190815260200160002054905092915050565b60008183610de79190611093565b905092915050565b60008183610dfd919061103d565b905092915050565b600081359050610e148161118f565b92915050565b600081359050610e29816111a6565b92915050565b600060208284031215610e4157600080fd5b6000610e4f84828501610e05565b91505092915050565b60008060408385031215610e6b57600080fd5b6000610e7985828601610e05565b9250506020610e8a85828601610e05565b9150509250929050565b600080600060608486031215610ea957600080fd5b6000610eb786828701610e05565b9350506020610ec886828701610e05565b9250506040610ed986828701610e1a565b9150509250925092565b60008060408385031215610ef657600080fd5b6000610f0485828601610e05565b9250506020610f1585828601610e1a565b9150509250929050565b600060208284031215610f3157600080fd5b6000610f3f84828501610e1a565b91505092915050565b610f51816110d9565b82525050565b6000610f6282611021565b610f6c818561102c565b9350610f7c81856020860161111c565b610f858161117e565b840191505092915050565b610f9981611105565b82525050565b610fa88161110f565b82525050565b6000602082019050610fc36000830184610f48565b92915050565b60006020820190508181036000830152610fe38184610f57565b905092915050565b60006020820190506110006000830184610f90565b92915050565b600060208201905061101b6000830184610f9f565b92915050565b600081519050919050565b600082825260208201905092915050565b600061104882611105565b915061105383611105565b9250827fffffffffffffffffffffffffffffffffffffffffffffffffffffffffffffffff038211156110885761108761114f565b5b828201905092915050565b600061109e82611105565b91506110a983611105565b9250828210156110bc576110bb61114f565b5b828203905092915050565b60006110d2826110e5565b9050919050565b60008115159050919050565b600073ffffffffffffffffffffffffffffffffffffffff82169050919050565b6000819050919050565b600060ff82169050919050565b60005b8381101561113a57808201518184015260208101905061111f565b83811115611149576000848401525b50505050565b7f4e487b7100000000000000000000000000000000000000000000000000000000600052601160045260246000fd5b6000601f19601f8301169050919050565b611198816110c7565b81146111a357600080fd5b50565b6111af81611105565b81146111ba57600080fd5b5056fea2646970667358221220b5a41da6f763a0b1abf679a58e8d1e800d4fca2cfc2c0d915d4a0b7b8c01fd8964736f6c63430008000033",
  "linkReferences": {},
  "deployedLinkReferences": {}
}