{
  "_format": "hh-sol-artifact-1",
  "contractName": "chainHousing",
  "sourceName": "src/backend/contracts/chainHousing.sol",
  "abi": [
    {
      "inputs": [],
      "stateMutability": "nonpayable",
      "type": "constructor"
    },
    {
      "inputs": [
        {
          "internalType": "address",
          "name": "",
          "type": "address"
        }
      ],
      "name": "Clients",
      "outputs": [
        {
          "internalType": "uint256",
          "name": "token_balance",
          "type": "uint256"
        }
      ],
      "stateMutability": "view",
      "type": "function"
    },
    {
      "inputs": [
        {
          "internalType": "uint256",
          "name": "",
          "type": "uint256"
        }
      ],
      "name": "Properties",
      "outputs": [
        {
          "internalType": "uint256",
          "name": "propertyId",
          "type": "uint256"
        },
        {
          "internalType": "string",
          "name": "name",
          "type": "string"
        },
        {
          "internalType": "string",
          "name": "location",
          "type": "string"
        },
        {
          "internalType": "uint256",
          "name": "baths",
          "type": "uint256"
        },
        {
          "internalType": "uint256",
          "name": "rooms",
          "type": "uint256"
        },
        {
          "internalType": "uint256",
          "name": "m2",
          "type": "uint256"
        },
        {
          "internalType": "uint256",
          "name": "price",
          "type": "uint256"
        },
        {
          "internalType": "bool",
          "name": "forSale",
          "type": "bool"
        },
        {
          "internalType": "bool",
          "name": "available",
          "type": "bool"
        }
      ],
      "stateMutability": "view",
      "type": "function"
    },
    {
      "inputs": [
        {
          "internalType": "uint256",
          "name": "propertyId",
          "type": "uint256"
        },
        {
          "internalType": "string",
          "name": "_newImage",
          "type": "string"
        }
      ],
      "name": "addPropertyImage",
      "outputs": [],
      "stateMutability": "nonpayable",
      "type": "function"
    },
    {
      "inputs": [],
      "name": "balanceOf",
      "outputs": [
        {
          "internalType": "uint256",
          "name": "",
          "type": "uint256"
        }
      ],
      "stateMutability": "view",
      "type": "function"
    },
    {
      "inputs": [
        {
          "internalType": "uint256",
          "name": "_propertyId",
          "type": "uint256"
        },
        {
          "internalType": "uint256",
          "name": "_shares",
          "type": "uint256"
        }
      ],
      "name": "buyPorperty",
      "outputs": [],
      "stateMutability": "nonpayable",
      "type": "function"
    },
    {
      "inputs": [
        {
          "internalType": "uint256",
          "name": "_numTokens",
          "type": "uint256"
        }
      ],
      "name": "buyTokens",
      "outputs": [],
      "stateMutability": "payable",
      "type": "function"
    },
    {
      "inputs": [
        {
          "internalType": "uint256",
          "name": "_propertyId",
          "type": "uint256"
        }
      ],
      "name": "checkProperty",
      "outputs": [
        {
          "internalType": "bool",
          "name": "",
          "type": "bool"
        }
      ],
      "stateMutability": "view",
      "type": "function"
    },
    {
      "inputs": [
        {
          "internalType": "uint256",
          "name": "",
          "type": "uint256"
        },
        {
          "internalType": "address",
          "name": "",
          "type": "address"
        }
      ],
      "name": "clientSharesOfProperty",
      "outputs": [
        {
          "internalType": "uint256",
          "name": "",
          "type": "uint256"
        }
      ],
      "stateMutability": "view",
      "type": "function"
    },
    {
      "inputs": [],
      "name": "contractOwner",
      "outputs": [
        {
          "internalType": "address payable",
          "name": "",
          "type": "address"
        }
      ],
      "stateMutability": "view",
      "type": "function"
    },
    {
      "inputs": [
        {
          "internalType": "uint256",
          "name": "_numTokens",
          "type": "uint256"
        }
      ],
      "name": "createTokens",
      "outputs": [],
      "stateMutability": "nonpayable",
      "type": "function"
    },
    {
      "inputs": [],
      "name": "getAllProperties",
      "outputs": [
        {
          "components": [
            {
              "internalType": "uint256",
              "name": "propertyId",
              "type": "uint256"
            },
            {
              "internalType": "string",
              "name": "name",
              "type": "string"
            },
            {
              "internalType": "string",
              "name": "location",
              "type": "string"
            },
            {
              "internalType": "string[]",
              "name": "images",
              "type": "string[]"
            },
            {
              "internalType": "uint256",
              "name": "baths",
              "type": "uint256"
            },
            {
              "internalType": "uint256",
              "name": "rooms",
              "type": "uint256"
            },
            {
              "internalType": "uint256",
              "name": "m2",
              "type": "uint256"
            },
            {
              "internalType": "uint256",
              "name": "price",
              "type": "uint256"
            },
            {
              "internalType": "bool",
              "name": "forSale",
              "type": "bool"
            },
            {
              "internalType": "bool",
              "name": "available",
              "type": "bool"
            },
            {
              "internalType": "address[]",
              "name": "owners",
              "type": "address[]"
            }
          ],
          "internalType": "struct chainHousing.property[]",
          "name": "",
          "type": "tuple[]"
        }
      ],
      "stateMutability": "view",
      "type": "function"
    },
    {
      "inputs": [
        {
          "internalType": "address",
          "name": "_address",
          "type": "address"
        }
      ],
      "name": "getClientEthBalance",
      "outputs": [
        {
          "internalType": "uint256",
          "name": "",
          "type": "uint256"
        }
      ],
      "stateMutability": "view",
      "type": "function"
    },
    {
      "inputs": [
        {
          "internalType": "uint256",
          "name": "_propId",
          "type": "uint256"
        },
        {
          "internalType": "address",
          "name": "_addr",
          "type": "address"
        }
      ],
      "name": "getClientShares",
      "outputs": [
        {
          "internalType": "uint256",
          "name": "",
          "type": "uint256"
        }
      ],
      "stateMutability": "view",
      "type": "function"
    },
    {
      "inputs": [],
      "name": "getContractAddress",
      "outputs": [
        {
          "internalType": "address",
          "name": "",
          "type": "address"
        }
      ],
      "stateMutability": "view",
      "type": "function"
    },
    {
      "inputs": [],
      "name": "getContractEthBalance",
      "outputs": [
        {
          "internalType": "uint256",
          "name": "",
          "type": "uint256"
        }
      ],
      "stateMutability": "view",
      "type": "function"
    },
    {
      "inputs": [
        {
          "internalType": "uint256",
          "name": "propertyId",
          "type": "uint256"
        }
      ],
      "name": "getPropertyImages",
      "outputs": [
        {
          "internalType": "string[]",
          "name": "",
          "type": "string[]"
        }
      ],
      "stateMutability": "view",
      "type": "function"
    },
    {
      "inputs": [
        {
          "internalType": "uint256",
          "name": "propertyId",
          "type": "uint256"
        }
      ],
      "name": "getPropertyOwners",
      "outputs": [
        {
          "internalType": "address[]",
          "name": "",
          "type": "address[]"
        }
      ],
      "stateMutability": "view",
      "type": "function"
    },
    {
      "inputs": [
        {
          "internalType": "uint256",
          "name": "_tokens",
          "type": "uint256"
        }
      ],
      "name": "getTokenPrice",
      "outputs": [
        {
          "internalType": "uint256",
          "name": "",
          "type": "uint256"
        }
      ],
      "stateMutability": "view",
      "type": "function"
    },
    {
      "inputs": [
        {
          "internalType": "string",
          "name": "_name",
          "type": "string"
        },
        {
          "internalType": "string",
          "name": "_location",
          "type": "string"
        },
        {
          "internalType": "string",
          "name": "_img",
          "type": "string"
        },
        {
          "internalType": "uint256",
          "name": "_baths",
          "type": "uint256"
        },
        {
          "internalType": "uint256",
          "name": "_rooms",
          "type": "uint256"
        },
        {
          "internalType": "uint256",
          "name": "_mts",
          "type": "uint256"
        },
        {
          "internalType": "uint256",
          "name": "_price",
          "type": "uint256"
        }
      ],
      "name": "listProperty",
      "outputs": [],
      "stateMutability": "nonpayable",
      "type": "function"
    },
    {
      "inputs": [],
      "name": "myTokens",
      "outputs": [
        {
          "internalType": "uint256",
          "name": "",
          "type": "uint256"
        }
      ],
      "stateMutability": "view",
      "type": "function"
    },
    {
      "inputs": [],
      "name": "name",
      "outputs": [
        {
          "internalType": "string",
          "name": "",
          "type": "string"
        }
      ],
      "stateMutability": "view",
      "type": "function"
    },
    {
      "inputs": [
        {
          "internalType": "address",
          "name": "owner",
          "type": "address"
        },
        {
          "internalType": "uint256",
          "name": "_propestyId",
          "type": "uint256"
        }
      ],
      "name": "removeOwner",
      "outputs": [],
      "stateMutability": "nonpayable",
      "type": "function"
    },
    {
      "inputs": [
        {
          "internalType": "uint256",
          "name": "_propertyId",
          "type": "uint256"
        }
      ],
      "name": "removeProperty",
      "outputs": [],
      "stateMutability": "nonpayable",
      "type": "function"
    },
    {
      "inputs": [
        {
          "internalType": "uint256",
          "name": "_propertyId",
          "type": "uint256"
        },
        {
          "internalType": "uint256",
          "name": "_shares",
          "type": "uint256"
        }
      ],
      "name": "sellProperty",
      "outputs": [],
      "stateMutability": "nonpayable",
      "type": "function"
    },
    {
      "inputs": [
        {
          "internalType": "uint256",
          "name": "_numTokens",
          "type": "uint256"
        }
      ],
      "name": "sellTokens",
      "outputs": [],
      "stateMutability": "payable",
      "type": "function"
    },
    {
      "inputs": [
        {
          "internalType": "uint256",
          "name": "_newExchange",
          "type": "uint256"
        }
      ],
      "name": "setManualExchange",
      "outputs": [],
      "stateMutability": "nonpayable",
      "type": "function"
    },
    {
      "inputs": [],
      "name": "showPropertiesId",
      "outputs": [
        {
          "internalType": "uint256[]",
          "name": "",
          "type": "uint256[]"
        }
      ],
      "stateMutability": "view",
      "type": "function"
    },
    {
      "inputs": [],
      "name": "symbol",
      "outputs": [
        {
          "internalType": "string",
          "name": "",
          "type": "string"
        }
      ],
      "stateMutability": "view",
      "type": "function"
    },
    {
      "inputs": [
        {
          "internalType": "uint256",
          "name": "_numTokens",
          "type": "uint256"
        }
      ],
      "name": "tokenPrice",
      "outputs": [
        {
          "internalType": "uint256",
          "name": "",
          "type": "uint256"
        }
      ],
      "stateMutability": "view",
      "type": "function"
    }
  ],
  "bytecode": "0x60806040523480156200001157600080fd5b5060006040516200002290620000f0565b6200002e91906200010f565b604051809103906000f0801580156200004b573d6000803e3d6000fd5b506000806101000a81548173ffffffffffffffffffffffffffffffffffffffff021916908373ffffffffffffffffffffffffffffffffffffffff16021790555033600160006101000a81548173ffffffffffffffffffffffffffffffffffffffff021916908373ffffffffffffffffffffffffffffffffffffffff1602179055506601e2083dbb2000600281905550600260048190555060016005819055506200014a565b6112e580620046ae83390190565b620001098162000136565b82525050565b6000602082019050620001266000830184620000fe565b92915050565b6000819050919050565b600062000143826200012c565b9050919050565b614554806200015a6000396000f3fe6080604052600436106101c25760003560e01c8063722713f7116100f7578063bc226dd311610095578063ce606ee011610064578063ce606ee014610666578063d4ddce8a14610691578063e8185549146106ce578063ed46a8cf1461070b576101c2565b8063bc226dd31461059a578063bc43d06f146105d7578063bfd2b3a314610600578063c457fb3714610629576101c2565b806395d89b41116100d157806395d89b41146104c45780639d116884146104ef578063a595673814610534578063af18954414610571576101c2565b8063722713f7146104455780637e1f2bb814610470578063949e8acd14610499576101c2565b806346771db711610164578063547976761161013e5780635479767614610386578063555cd7ae146103c357806359d7752e146103ec5780636c11bcd314610429576101c2565b806346771db7146102f35780634de57d75146103305780635469e5e01461035b576101c2565b806328383422116101a0578063283834221461025857806332a2c5d0146102815780633610724e146102ac5780633d51402c146102c8576101c2565b80630589f50b146101c757806306fdde0314610204578063146412641461022f575b600080fd5b3480156101d357600080fd5b506101ee60048036038101906101e99190613169565b610734565b6040516101fb9190613f96565b60405180910390f35b34801561021057600080fd5b50610219610755565b6040516102269190613dd4565b60405180910390f35b34801561023b57600080fd5b50610256600480360381019061025191906133ac565b6107ff565b005b34801561026457600080fd5b5061027f600480360381019061027a919061331e565b610961565b005b34801561028d57600080fd5b50610296610a15565b6040516102a39190613cc4565b60405180910390f35b6102c660048036038101906102c1919061331e565b610a1d565b005b3480156102d457600080fd5b506102dd610c22565b6040516102ea9190613d75565b60405180910390f35b3480156102ff57600080fd5b5061031a60048036038101906103159190613370565b611073565b6040516103279190613f96565b60405180910390f35b34801561033c57600080fd5b506103456110ce565b6040516103529190613f96565b60405180910390f35b34801561036757600080fd5b506103706110ee565b60405161037d9190613d97565b60405180910390f35b34801561039257600080fd5b506103ad60048036038101906103a8919061331e565b611146565b6040516103ba9190613d31565b60405180910390f35b3480156103cf57600080fd5b506103ea60048036038101906103e59190613238565b611244565b005b3480156103f857600080fd5b50610413600480360381019061040e9190613370565b6116f5565b6040516104209190613f96565b60405180910390f35b610443600480360381019061043e919061331e565b61171a565b005b34801561045157600080fd5b5061045a611938565b6040516104679190613f96565b60405180910390f35b34801561047c57600080fd5b506104976004803603810190610492919061331e565b6119e9565b005b3480156104a557600080fd5b506104ae611b09565b6040516104bb9190613f96565b60405180910390f35b3480156104d057600080fd5b506104d9611bba565b6040516104e69190613dd4565b60405180910390f35b3480156104fb57600080fd5b506105166004803603810190610511919061331e565b611c64565b60405161052b99989796959493929190613fb1565b60405180910390f35b34801561054057600080fd5b5061055b60048036038101906105569190613169565b611ddc565b6040516105689190613f96565b60405180910390f35b34801561057d57600080fd5b5061059860048036038101906105939190613400565b611dfa565b005b3480156105a657600080fd5b506105c160048036038101906105bc919061331e565b612315565b6040516105ce9190613db9565b60405180910390f35b3480156105e357600080fd5b506105fe60048036038101906105f9919061331e565b61239e565b005b34801561060c57600080fd5b5061062760048036038101906106229190613192565b612539565b005b34801561063557600080fd5b50610650600480360381019061064b919061331e565b6127ca565b60405161065d9190613f96565b60405180910390f35b34801561067257600080fd5b5061067b6127e1565b6040516106889190613cdf565b60405180910390f35b34801561069d57600080fd5b506106b860048036038101906106b3919061331e565b612807565b6040516106c59190613f96565b60405180910390f35b3480156106da57600080fd5b506106f560048036038101906106f0919061331e565b61281e565b6040516107029190613d53565b60405180910390f35b34801561071757600080fd5b50610732600480360381019061072d9190613400565b612967565b005b60008173ffffffffffffffffffffffffffffffffffffffff16319050919050565b606060008054906101000a900473ffffffffffffffffffffffffffffffffffffffff1673ffffffffffffffffffffffffffffffffffffffff166306fdde036040518163ffffffff1660e01b815260040160006040518083038186803b1580156107bd57600080fd5b505afa1580156107d1573d6000803e3d6000fd5b505050506040513d6000823e3d601f19601f820116820180604052508101906107fa91906131f7565b905090565b600160009054906101000a900473ffffffffffffffffffffffffffffffffffffffff16600160009054906101000a900473ffffffffffffffffffffffffffffffffffffffff1673ffffffffffffffffffffffffffffffffffffffff168173ffffffffffffffffffffffffffffffffffffffff16146108b2576040517f08c379a00000000000000000000000000000000000000000000000000000000081526004016108a990613e36565b60405180910390fd5b60006006600085815260200190815260200160002060000154141561090c576040517f08c379a000000000000000000000000000000000000000000000000000000000815260040161090390613e76565b60405180910390fd5b600660008481526020019081526020016000206003018290806001815401808255809150506001900390600052602060002001600090919091909150908051906020019061095b929190612df6565b50505050565b33600160009054906101000a900473ffffffffffffffffffffffffffffffffffffffff1673ffffffffffffffffffffffffffffffffffffffff168173ffffffffffffffffffffffffffffffffffffffff16146109f2576040517f08c379a00000000000000000000000000000000000000000000000000000000081526004016109e990613e36565b60405180910390fd5b60008290506000600190508082610a099190614267565b60028190555050505050565b600030905090565b6000610a2882612807565b905080341015610a6d576040517f08c379a0000000000000000000000000000000000000000000000000000000008152600401610a6490613e16565b60405180910390fd5b60008134610a7b91906142c1565b90503373ffffffffffffffffffffffffffffffffffffffff166108fc829081150290604051600060405180830381858888f19350505050158015610ac3573d6000803e3d6000fd5b506000610ace611938565b905080841115610b13576040517f08c379a0000000000000000000000000000000000000000000000000000000008152600401610b0a90613f16565b60405180910390fd5b60008054906101000a900473ffffffffffffffffffffffffffffffffffffffff1673ffffffffffffffffffffffffffffffffffffffff166353d051b43033876040518463ffffffff1660e01b8152600401610b7093929190613cfa565b602060405180830381600087803b158015610b8a57600080fd5b505af1158015610b9e573d6000803e3d6000fd5b505050506040513d601f19601f82011682018060405250810190610bc291906131ce565b5083600960003373ffffffffffffffffffffffffffffffffffffffff1673ffffffffffffffffffffffffffffffffffffffff1681526020019081526020016000206001016000828254610c1591906141e0565b9250508190555050505050565b60606000600780549050905060008167ffffffffffffffff811115610c70577f4e487b7100000000000000000000000000000000000000000000000000000000600052604160045260246000fd5b604051908082528060200260200182016040528015610ca957816020015b610c96612e7c565b815260200190600190039081610c8e5790505b50905060005b8281101561106a57600060078281548110610cf3577f4e487b7100000000000000000000000000000000000000000000000000000000600052603260045260246000fd5b90600052602060002001549050600660008281526020019081526020016000206040518061016001604052908160008201548152602001600182018054610d3990614391565b80601f0160208091040260200160405190810160405280929190818152602001828054610d6590614391565b8015610db25780601f10610d8757610100808354040283529160200191610db2565b820191906000526020600020905b815481529060010190602001808311610d9557829003601f168201915b50505050508152602001600282018054610dcb90614391565b80601f0160208091040260200160405190810160405280929190818152602001828054610df790614391565b8015610e445780601f10610e1957610100808354040283529160200191610e44565b820191906000526020600020905b815481529060010190602001808311610e2757829003601f168201915b5050505050815260200160038201805480602002602001604051908101604052809291908181526020016000905b82821015610f1e578382906000526020600020018054610e9190614391565b80601f0160208091040260200160405190810160405280929190818152602001828054610ebd90614391565b8015610f0a5780601f10610edf57610100808354040283529160200191610f0a565b820191906000526020600020905b815481529060010190602001808311610eed57829003601f168201915b505050505081526020019060010190610e72565b505050508152602001600482015481526020016005820154815260200160068201548152602001600782015481526020016008820160009054906101000a900460ff161515151581526020016008820160019054906101000a900460ff161515151581526020016009820180548060200260200160405190810160405280929190818152602001828054801561100957602002820191906000526020600020905b8160009054906101000a900473ffffffffffffffffffffffffffffffffffffffff1673ffffffffffffffffffffffffffffffffffffffff1681526020019060010190808311610fbf575b50505050508152505083838151811061104b577f4e487b7100000000000000000000000000000000000000000000000000000000600052603260045260246000fd5b6020026020010181905250508080611062906143c3565b915050610caf565b50809250505090565b60006008600084815260200190815260200160002060008373ffffffffffffffffffffffffffffffffffffffff1673ffffffffffffffffffffffffffffffffffffffff16815260200190815260200160002054905092915050565b600080670de0b6b3a7640000476110e59190614236565b90508091505090565b6060600780548060200260200160405190810160405280929190818152602001828054801561113c57602002820191906000526020600020905b815481526020019060010190808311611128575b5050505050905090565b60606000600660008481526020019081526020016000206000015414156111a2576040517f08c379a000000000000000000000000000000000000000000000000000000000815260040161119990613e76565b60405180910390fd5b6006600083815260200190815260200160002060090180548060200260200160405190810160405280929190818152602001828054801561123857602002820191906000526020600020905b8160009054906101000a900473ffffffffffffffffffffffffffffffffffffffff1673ffffffffffffffffffffffffffffffffffffffff16815260200190600101908083116111ee575b50505050509050919050565b600160009054906101000a900473ffffffffffffffffffffffffffffffffffffffff16600160009054906101000a900473ffffffffffffffffffffffffffffffffffffffff1673ffffffffffffffffffffffffffffffffffffffff168173ffffffffffffffffffffffffffffffffffffffff16146112f7576040517f08c379a00000000000000000000000000000000000000000000000000000000081526004016112ee90613e36565b60405180910390fd5b6003600081548092919061130a906143c3565b9190505550600060405180610160016040528060035481526020018a8152602001898152602001600167ffffffffffffffff811115611372577f4e487b7100000000000000000000000000000000000000000000000000000000600052604160045260246000fd5b6040519080825280602002602001820160405280156113a557816020015b60608152602001906001900390816113905790505b508152602001878152602001868152602001858152602001848152602001600115158152602001600115158152602001600167ffffffffffffffff811115611416577f4e487b7100000000000000000000000000000000000000000000000000000000600052604160045260246000fd5b6040519080825280602002602001820160405280156114445781602001602082028036833780820191505090505b508152509050868160600151600081518110611489577f4e487b7100000000000000000000000000000000000000000000000000000000600052603260045260246000fd5b6020026020010181905250600160009054906101000a900473ffffffffffffffffffffffffffffffffffffffff168161014001516000815181106114f6577f4e487b7100000000000000000000000000000000000000000000000000000000600052603260045260246000fd5b602002602001019073ffffffffffffffffffffffffffffffffffffffff16908173ffffffffffffffffffffffffffffffffffffffff168152505080600660008360000151815260200190815260200160002060008201518160000155602082015181600101908051906020019061156e929190612df6565b50604082015181600201908051906020019061158b929190612df6565b5060608201518160030190805190602001906115a8929190612eda565b506080820151816004015560a0820151816005015560c0820151816006015560e082015181600701556101008201518160080160006101000a81548160ff0219169083151502179055506101208201518160080160016101000a81548160ff021916908315150217905550610140820151816009019080519060200190611630929190612f3a565b50905050600781600001519080600181540180825580915050600190039060005260206000200160009091909190915055606460086000836000015181526020019081526020016000206000600160009054906101000a900473ffffffffffffffffffffffffffffffffffffffff1673ffffffffffffffffffffffffffffffffffffffff1673ffffffffffffffffffffffffffffffffffffffff168152602001908152602001600020819055506116ea8160e001516119e9565b505050505050505050565b6008602052816000526040600020602052806000526040600020600091509150505481565b6000811161175d576040517f08c379a000000000000000000000000000000000000000000000000000000000815260040161175490613f36565b60405180910390fd5b80611766611b09565b10156117a7576040517f08c379a000000000000000000000000000000000000000000000000000000000815260040161179e90613e56565b60405180910390fd5b60006117b282612807565b905060006064600554836117c69190614267565b6117d09190614236565b9050600081836117e091906142c1565b905060008054906101000a900473ffffffffffffffffffffffffffffffffffffffff1673ffffffffffffffffffffffffffffffffffffffff166353d051b43330876040518463ffffffff1660e01b815260040161183f93929190613cfa565b602060405180830381600087803b15801561185957600080fd5b505af115801561186d573d6000803e3d6000fd5b505050506040513d601f19601f8201168201806040525081019061189191906131ce565b503373ffffffffffffffffffffffffffffffffffffffff166108fc829081150290604051600060405180830381858888f193505050501580156118d8573d6000803e3d6000fd5b5083600960003373ffffffffffffffffffffffffffffffffffffffff1673ffffffffffffffffffffffffffffffffffffffff168152602001908152602001600020600101600082825461192b91906142c1565b9250508190555050505050565b60008060009054906101000a900473ffffffffffffffffffffffffffffffffffffffff1673ffffffffffffffffffffffffffffffffffffffff166370a08231306040518263ffffffff1660e01b81526004016119949190613cc4565b60206040518083038186803b1580156119ac57600080fd5b505afa1580156119c0573d6000803e3d6000fd5b505050506040513d601f19601f820116820180604052508101906119e49190613347565b905090565b33600160009054906101000a900473ffffffffffffffffffffffffffffffffffffffff1673ffffffffffffffffffffffffffffffffffffffff168173ffffffffffffffffffffffffffffffffffffffff1614611a7a576040517f08c379a0000000000000000000000000000000000000000000000000000000008152600401611a7190613e36565b60405180910390fd5b60008054906101000a900473ffffffffffffffffffffffffffffffffffffffff1673ffffffffffffffffffffffffffffffffffffffff16634ee22adf836040518263ffffffff1660e01b8152600401611ad39190613f96565b600060405180830381600087803b158015611aed57600080fd5b505af1158015611b01573d6000803e3d6000fd5b505050505050565b60008060009054906101000a900473ffffffffffffffffffffffffffffffffffffffff1673ffffffffffffffffffffffffffffffffffffffff166370a08231336040518263ffffffff1660e01b8152600401611b659190613cc4565b60206040518083038186803b158015611b7d57600080fd5b505afa158015611b91573d6000803e3d6000fd5b505050506040513d601f19601f82011682018060405250810190611bb59190613347565b905090565b606060008054906101000a900473ffffffffffffffffffffffffffffffffffffffff1673ffffffffffffffffffffffffffffffffffffffff166395d89b416040518163ffffffff1660e01b815260040160006040518083038186803b158015611c2257600080fd5b505afa158015611c36573d6000803e3d6000fd5b505050506040513d6000823e3d601f19601f82011682018060405250810190611c5f91906131f7565b905090565b6006602052806000526040600020600091509050806000015490806001018054611c8d90614391565b80601f0160208091040260200160405190810160405280929190818152602001828054611cb990614391565b8015611d065780601f10611cdb57610100808354040283529160200191611d06565b820191906000526020600020905b815481529060010190602001808311611ce957829003601f168201915b505050505090806002018054611d1b90614391565b80601f0160208091040260200160405190810160405280929190818152602001828054611d4790614391565b8015611d945780601f10611d6957610100808354040283529160200191611d94565b820191906000526020600020905b815481529060010190602001808311611d7757829003601f168201915b5050505050908060040154908060050154908060060154908060070154908060080160009054906101000a900460ff16908060080160019054906101000a900460ff16905089565b60096020528060005260406000206000915090508060010154905081565b611e0382612315565b611e42576040517f08c379a0000000000000000000000000000000000000000000000000000000008152600401611e3990613eb6565b60405180910390fd5b6006600083815260200190815260200160002060080160019054906101000a900460ff16611ea5576040517f08c379a0000000000000000000000000000000000000000000000000000000008152600401611e9c90613f76565b60405180910390fd5b6006600083815260200190815260200160002060080160009054906101000a900460ff16611f08576040517f08c379a0000000000000000000000000000000000000000000000000000000008152600401611eff90613df6565b60405180910390fd5b60006064826006600086815260200190815260200160002060070154611f2e9190614267565b611f389190614236565b905080611f43611b09565b1015611f84576040517f08c379a0000000000000000000000000000000000000000000000000000000008152600401611f7b90613ef6565b60405180910390fd5b60008054906101000a900473ffffffffffffffffffffffffffffffffffffffff1673ffffffffffffffffffffffffffffffffffffffff166353d051b43330846040518463ffffffff1660e01b8152600401611fe193929190613cfa565b602060405180830381600087803b158015611ffb57600080fd5b505af115801561200f573d6000803e3d6000fd5b505050506040513d601f19601f8201168201806040525081019061203391906131ce565b5060066000848152602001908152602001600020600901339080600181540180825580915050600190039060005260206000200160009091909190916101000a81548173ffffffffffffffffffffffffffffffffffffffff021916908373ffffffffffffffffffffffffffffffffffffffff160217905550816008600085815260200190815260200160002060003373ffffffffffffffffffffffffffffffffffffffff1673ffffffffffffffffffffffffffffffffffffffff168152602001908152602001600020600082825461210b91906141e0565b925050819055506000600860008581526020019081526020016000206000600160009054906101000a900473ffffffffffffffffffffffffffffffffffffffff1673ffffffffffffffffffffffffffffffffffffffff1673ffffffffffffffffffffffffffffffffffffffff168152602001908152602001600020549050828161219591906142c1565b600860008681526020019081526020016000206000600160009054906101000a900473ffffffffffffffffffffffffffffffffffffffff1673ffffffffffffffffffffffffffffffffffffffff1673ffffffffffffffffffffffffffffffffffffffff1681526020019081526020016000208190555081600960003373ffffffffffffffffffffffffffffffffffffffff1673ffffffffffffffffffffffffffffffffffffffff168152602001908152602001600020600101600082825461225d91906142c1565b925050819055506000600860008681526020019081526020016000206000600160009054906101000a900473ffffffffffffffffffffffffffffffffffffffff1673ffffffffffffffffffffffffffffffffffffffff1673ffffffffffffffffffffffffffffffffffffffff16815260200190815260200160002054141561230f5760006006600086815260200190815260200160002060080160006101000a81548160ff0219169083151502179055505b50505050565b600080600090505b600780549050811015612393578260078281548110612365577f4e487b7100000000000000000000000000000000000000000000000000000000600052603260045260246000fd5b90600052602060002001541415612380576001915050612399565b808061238b906143c3565b91505061231d565b50600090505b919050565b600160009054906101000a900473ffffffffffffffffffffffffffffffffffffffff16600160009054906101000a900473ffffffffffffffffffffffffffffffffffffffff1673ffffffffffffffffffffffffffffffffffffffff168173ffffffffffffffffffffffffffffffffffffffff1614612451576040517f08c379a000000000000000000000000000000000000000000000000000000000815260040161244890613e36565b60405180910390fd5b6064600860008481526020019081526020016000206000600160009054906101000a900473ffffffffffffffffffffffffffffffffffffffff1673ffffffffffffffffffffffffffffffffffffffff1673ffffffffffffffffffffffffffffffffffffffff1681526020019081526020016000205414612506576040517f08c379a00000000000000000000000000000000000000000000000000000000081526004016124fd90613f56565b60405180910390fd5b60006006600084815260200190815260200160002060080160016101000a81548160ff0219169083151502179055505050565b60005b6001600660008481526020019081526020016000206009018054905061256291906142c1565b811015612744578273ffffffffffffffffffffffffffffffffffffffff166006600084815260200190815260200160002060090182815481106125ce577f4e487b7100000000000000000000000000000000000000000000000000000000600052603260045260246000fd5b9060005260206000200160009054906101000a900473ffffffffffffffffffffffffffffffffffffffff1673ffffffffffffffffffffffffffffffffffffffff161415612731576006600083815260200190815260200160002060090160018261263891906141e0565b8154811061266f577f4e487b7100000000000000000000000000000000000000000000000000000000600052603260045260246000fd5b9060005260206000200160009054906101000a900473ffffffffffffffffffffffffffffffffffffffff166006600084815260200190815260200160002060090182815481106126e8577f4e487b7100000000000000000000000000000000000000000000000000000000600052603260045260246000fd5b9060005260206000200160006101000a81548173ffffffffffffffffffffffffffffffffffffffff021916908373ffffffffffffffffffffffffffffffffffffffff1602179055505b808061273c906143c3565b91505061253c565b5060066000828152602001908152602001600020600901805480612791577f4e487b7100000000000000000000000000000000000000000000000000000000600052603160045260246000fd5b6001900381819060005260206000200160006101000a81549073ffffffffffffffffffffffffffffffffffffffff021916905590555050565b6000600254826127da9190614267565b9050919050565b600160009054906101000a900473ffffffffffffffffffffffffffffffffffffffff1681565b6000600254826128179190614267565b9050919050565b606060006006600084815260200190815260200160002060000154141561287a576040517f08c379a000000000000000000000000000000000000000000000000000000000815260040161287190613e76565b60405180910390fd5b60066000838152602001908152602001600020600301805480602002602001604051908101604052809291908181526020016000905b8282101561295c5783829060005260206000200180546128cf90614391565b80601f01602080910402602001604051908101604052809291908181526020018280546128fb90614391565b80156129485780601f1061291d57610100808354040283529160200191612948565b820191906000526020600020905b81548152906001019060200180831161292b57829003601f168201915b5050505050815260200190600101906128b0565b505050509050919050565b60006008600084815260200190815260200160002060003373ffffffffffffffffffffffffffffffffffffffff1673ffffffffffffffffffffffffffffffffffffffff168152602001908152602001600020549050600081116129ff576040517f08c379a00000000000000000000000000000000000000000000000000000000081526004016129f690613ed6565b60405180910390fd5b81811015612a42576040517f08c379a0000000000000000000000000000000000000000000000000000000008152600401612a3990613e96565b60405180910390fd5b60006064836006600087815260200190815260200160002060070154612a689190614267565b612a729190614236565b90506000606460045483612a869190614267565b612a909190614236565b90506001811015612aa057600190505b60008183612aae91906142c1565b9050846008600088815260200190815260200160002060003373ffffffffffffffffffffffffffffffffffffffff1673ffffffffffffffffffffffffffffffffffffffff1681526020019081526020016000206000828254612b1091906142c1565b9250508190555084600860008881526020019081526020016000206000600160009054906101000a900473ffffffffffffffffffffffffffffffffffffffff1673ffffffffffffffffffffffffffffffffffffffff1673ffffffffffffffffffffffffffffffffffffffff1681526020019081526020016000206000828254612b9991906141e0565b9250508190555060008054906101000a900473ffffffffffffffffffffffffffffffffffffffff1673ffffffffffffffffffffffffffffffffffffffff166353d051b43033846040518463ffffffff1660e01b8152600401612bfd93929190613cfa565b602060405180830381600087803b158015612c1757600080fd5b505af1158015612c2b573d6000803e3d6000fd5b505050506040513d601f19601f82011682018060405250810190612c4f91906131ce565b5080600960003373ffffffffffffffffffffffffffffffffffffffff1673ffffffffffffffffffffffffffffffffffffffff1681526020019081526020016000206001016000828254612ca291906141e0565b9250508190555060008015612d2957506000600860008881526020019081526020016000206000600160009054906101000a900473ffffffffffffffffffffffffffffffffffffffff1673ffffffffffffffffffffffffffffffffffffffff1673ffffffffffffffffffffffffffffffffffffffff16815260200190815260200160002054115b6006600088815260200190815260200160002060080160006101000a81548160ff021916908315150217905515612d8a5760016006600088815260200190815260200160002060080160006101000a81548160ff0219169083151502179055505b60016008600088815260200190815260200160002060003373ffffffffffffffffffffffffffffffffffffffff1673ffffffffffffffffffffffffffffffffffffffff168152602001908152602001600020541015612dee57612ded3387612539565b5b505050505050565b828054612e0290614391565b90600052602060002090601f016020900481019282612e245760008555612e6b565b82601f10612e3d57805160ff1916838001178555612e6b565b82800160010185558215612e6b579182015b82811115612e6a578251825591602001919060010190612e4f565b5b509050612e789190612fc4565b5090565b6040518061016001604052806000815260200160608152602001606081526020016060815260200160008152602001600081526020016000815260200160008152602001600015158152602001600015158152602001606081525090565b828054828255906000526020600020908101928215612f29579160200282015b82811115612f28578251829080519060200190612f18929190612df6565b5091602001919060010190612efa565b5b509050612f369190612fe1565b5090565b828054828255906000526020600020908101928215612fb3579160200282015b82811115612fb25782518260006101000a81548173ffffffffffffffffffffffffffffffffffffffff021916908373ffffffffffffffffffffffffffffffffffffffff16021790555091602001919060010190612f5a565b5b509050612fc09190612fc4565b5090565b5b80821115612fdd576000816000905550600101612fc5565b5090565b5b808211156130015760008181612ff89190613005565b50600101612fe2565b5090565b50805461301190614391565b6000825580601f106130235750613042565b601f0160209004906000526020600020908101906130419190612fc4565b5b50565b60006130586130538461407d565b61404c565b90508281526020810184848401111561307057600080fd5b61307b84828561434f565b509392505050565b60006130966130918461407d565b61404c565b9050828152602081018484840111156130ae57600080fd5b6130b984828561435e565b509392505050565b6000813590506130d0816144d9565b92915050565b6000815190506130e5816144f0565b92915050565b600082601f8301126130fc57600080fd5b813561310c848260208601613045565b91505092915050565b600082601f83011261312657600080fd5b8151613136848260208601613083565b91505092915050565b60008135905061314e81614507565b92915050565b60008151905061316381614507565b92915050565b60006020828403121561317b57600080fd5b6000613189848285016130c1565b91505092915050565b600080604083850312156131a557600080fd5b60006131b3858286016130c1565b92505060206131c48582860161313f565b9150509250929050565b6000602082840312156131e057600080fd5b60006131ee848285016130d6565b91505092915050565b60006020828403121561320957600080fd5b600082015167ffffffffffffffff81111561322357600080fd5b61322f84828501613115565b91505092915050565b600080600080600080600060e0888a03121561325357600080fd5b600088013567ffffffffffffffff81111561326d57600080fd5b6132798a828b016130eb565b975050602088013567ffffffffffffffff81111561329657600080fd5b6132a28a828b016130eb565b965050604088013567ffffffffffffffff8111156132bf57600080fd5b6132cb8a828b016130eb565b95505060606132dc8a828b0161313f565b94505060806132ed8a828b0161313f565b93505060a06132fe8a828b0161313f565b92505060c061330f8a828b0161313f565b91505092959891949750929550565b60006020828403121561333057600080fd5b600061333e8482850161313f565b91505092915050565b60006020828403121561335957600080fd5b600061336784828501613154565b91505092915050565b6000806040838503121561338357600080fd5b60006133918582860161313f565b92505060206133a2858286016130c1565b9150509250929050565b600080604083850312156133bf57600080fd5b60006133cd8582860161313f565b925050602083013567ffffffffffffffff8111156133ea57600080fd5b6133f6858286016130eb565b9150509250929050565b6000806040838503121561341357600080fd5b60006134218582860161313f565b92505060206134328582860161313f565b9150509250929050565b600061344883836134a3565b60208301905092915050565b60006134608383613758565b905092915050565b60006134748383613ba2565b905092915050565b60006134888383613ca6565b60208301905092915050565b61349d81614307565b82525050565b6134ac816142f5565b82525050565b6134bb816142f5565b82525050565b60006134cc826140ed565b6134d68185614158565b93506134e1836140ad565b8060005b838110156135125781516134f9888261343c565b975061350483614124565b9250506001810190506134e5565b5085935050505092915050565b600061352a826140ed565b6135348185614169565b935061353f836140ad565b8060005b83811015613570578151613557888261343c565b975061356283614124565b925050600181019050613543565b5085935050505092915050565b6000613588826140f8565b613592818561417a565b9350836020820285016135a4856140bd565b8060005b858110156135e057848403895281516135c18582613454565b94506135cc83614131565b925060208a019950506001810190506135a8565b50829750879550505050505092915050565b60006135fd826140f8565b613607818561418b565b935083602082028501613619856140bd565b8060005b8581101561365557848403895281516136368582613454565b945061364183614131565b925060208a0199505060018101905061361d565b50829750879550505050505092915050565b600061367282614103565b61367c818561419c565b93508360208202850161368e856140cd565b8060005b858110156136ca57848403895281516136ab8582613468565b94506136b68361413e565b925060208a01995050600181019050613692565b50829750879550505050505092915050565b60006136e78261410e565b6136f181856141ad565b93506136fc836140dd565b8060005b8381101561372d578151613714888261347c565b975061371f8361414b565b925050600181019050613700565b5085935050505092915050565b61374381614319565b82525050565b61375281614319565b82525050565b600061376382614119565b61376d81856141be565b935061377d81856020860161435e565b613786816144c8565b840191505092915050565b600061379c82614119565b6137a681856141cf565b93506137b681856020860161435e565b6137bf816144c8565b840191505092915050565b60006137d76018836141cf565b91507f50726f7065727479206973206e6f7420666f722073616c6500000000000000006000830152602082019050919050565b60006138176012836141cf565b91507f496e737566696369656e742066756e64732e00000000000000000000000000006000830152602082019050919050565b6000613857602c836141cf565b91507f4f6e6c7920636f6e7472616374206f776e65722063616e20706572666f726d2060008301527f7468697320616374696f6e2e00000000000000000000000000000000000000006020830152604082019050919050565b60006138bd601b836141cf565b91507f596f7520646f6e74206861766520656e6f75676820746f6b656e7300000000006000830152602082019050919050565b60006138fd6017836141cf565b91507f50726f706572747920646f6573206e6f742065786973740000000000000000006000830152602082019050919050565b600061393d601f836141cf565b91507f596f7520646f6e2774206f776e2074686f7365206d616e7920736861726573006000830152602082019050919050565b600061397d6030836141cf565b91507f5468652070726f706572747920494420697320696e636f7272656374206f722060008301527f646f6573206e6f746520657869737473000000000000000000000000000000006020830152604082019050919050565b60006139e3601b836141cf565b91507f596f7520646f6e2774206f776e20746869732070726f706572747900000000006000830152602082019050919050565b6000613a23601c836141cf565b91507f596f7520646f6e2774206861766520656e6f75676820746f6b656e73000000006000830152602082019050919050565b6000613a63601b836141cf565b91507f4e6f7420656e6f75676820746f6b656e7320617661696c61626c6500000000006000830152602082019050919050565b6000613aa36010836141cf565b91507f4e6f20746f6b657320746f2073656c6c000000000000000000000000000000006000830152602082019050919050565b6000613ae3602f836141cf565b91507f546865726520617265206f7468657220696e766573746f72732074686174206f60008301527f776e73207468652070726f7065727900000000000000000000000000000000006020830152604082019050919050565b6000613b49602a836141cf565b91507f546869732070726f706572747920686173206265656e2072656d6f766564206660008301527f726f6d206d61726b6574000000000000000000000000000000000000000000006020830152604082019050919050565b600061016083016000830151613bbb6000860182613ca6565b5060208301518482036020860152613bd38282613758565b91505060408301518482036040860152613bed8282613758565b91505060608301518482036060860152613c07828261357d565b9150506080830151613c1c6080860182613ca6565b5060a0830151613c2f60a0860182613ca6565b5060c0830151613c4260c0860182613ca6565b5060e0830151613c5560e0860182613ca6565b50610100830151613c6a61010086018261373a565b50610120830151613c7f61012086018261373a565b50610140830151848203610140860152613c9982826134c1565b9150508091505092915050565b613caf81614345565b82525050565b613cbe81614345565b82525050565b6000602082019050613cd960008301846134b2565b92915050565b6000602082019050613cf46000830184613494565b92915050565b6000606082019050613d0f60008301866134b2565b613d1c60208301856134b2565b613d296040830184613cb5565b949350505050565b60006020820190508181036000830152613d4b818461351f565b905092915050565b60006020820190508181036000830152613d6d81846135f2565b905092915050565b60006020820190508181036000830152613d8f8184613667565b905092915050565b60006020820190508181036000830152613db181846136dc565b905092915050565b6000602082019050613dce6000830184613749565b92915050565b60006020820190508181036000830152613dee8184613791565b905092915050565b60006020820190508181036000830152613e0f816137ca565b9050919050565b60006020820190508181036000830152613e2f8161380a565b9050919050565b60006020820190508181036000830152613e4f8161384a565b9050919050565b60006020820190508181036000830152613e6f816138b0565b9050919050565b60006020820190508181036000830152613e8f816138f0565b9050919050565b60006020820190508181036000830152613eaf81613930565b9050919050565b60006020820190508181036000830152613ecf81613970565b9050919050565b60006020820190508181036000830152613eef816139d6565b9050919050565b60006020820190508181036000830152613f0f81613a16565b9050919050565b60006020820190508181036000830152613f2f81613a56565b9050919050565b60006020820190508181036000830152613f4f81613a96565b9050919050565b60006020820190508181036000830152613f6f81613ad6565b9050919050565b60006020820190508181036000830152613f8f81613b3c565b9050919050565b6000602082019050613fab6000830184613cb5565b92915050565b600061012082019050613fc7600083018c613cb5565b8181036020830152613fd9818b613791565b90508181036040830152613fed818a613791565b9050613ffc6060830189613cb5565b6140096080830188613cb5565b61401660a0830187613cb5565b61402360c0830186613cb5565b61403060e0830185613749565b61403e610100830184613749565b9a9950505050505050505050565b6000604051905081810181811067ffffffffffffffff8211171561407357614072614499565b5b8060405250919050565b600067ffffffffffffffff82111561409857614097614499565b5b601f19601f8301169050602081019050919050565b6000819050602082019050919050565b6000819050602082019050919050565b6000819050602082019050919050565b6000819050602082019050919050565b600081519050919050565b600081519050919050565b600081519050919050565b600081519050919050565b600081519050919050565b6000602082019050919050565b6000602082019050919050565b6000602082019050919050565b6000602082019050919050565b600082825260208201905092915050565b600082825260208201905092915050565b600082825260208201905092915050565b600082825260208201905092915050565b600082825260208201905092915050565b600082825260208201905092915050565b600082825260208201905092915050565b600082825260208201905092915050565b60006141eb82614345565b91506141f683614345565b9250827fffffffffffffffffffffffffffffffffffffffffffffffffffffffffffffffff0382111561422b5761422a61440c565b5b828201905092915050565b600061424182614345565b915061424c83614345565b92508261425c5761425b61443b565b5b828204905092915050565b600061427282614345565b915061427d83614345565b9250817fffffffffffffffffffffffffffffffffffffffffffffffffffffffffffffffff04831182151516156142b6576142b561440c565b5b828202905092915050565b60006142cc82614345565b91506142d783614345565b9250828210156142ea576142e961440c565b5b828203905092915050565b600061430082614325565b9050919050565b600061431282614325565b9050919050565b60008115159050919050565b600073ffffffffffffffffffffffffffffffffffffffff82169050919050565b6000819050919050565b82818337600083830152505050565b60005b8381101561437c578082015181840152602081019050614361565b8381111561438b576000848401525b50505050565b600060028204905060018216806143a957607f821691505b602082108114156143bd576143bc61446a565b5b50919050565b60006143ce82614345565b91507fffffffffffffffffffffffffffffffffffffffffffffffffffffffffffffffff8214156144015761440061440c565b5b600182019050919050565b7f4e487b7100000000000000000000000000000000000000000000000000000000600052601160045260246000fd5b7f4e487b7100000000000000000000000000000000000000000000000000000000600052601260045260246000fd5b7f4e487b7100000000000000000000000000000000000000000000000000000000600052602260045260246000fd5b7f4e487b7100000000000000000000000000000000000000000000000000000000600052604160045260246000fd5b6000601f19601f8301169050919050565b6144e2816142f5565b81146144ed57600080fd5b50565b6144f981614319565b811461450457600080fd5b50565b61451081614345565b811461451b57600080fd5b5056fea2646970667358221220db8beb7eeafd008d737df82261fe1d85eeae058564284787458916d00b6724dd64736f6c63430008000033608060405234801561001057600080fd5b506040516112e53803806112e583398181016040528101906100329190610099565b806002819055506002546000803373ffffffffffffffffffffffffffffffffffffffff1673ffffffffffffffffffffffffffffffffffffffff16815260200190815260200160002081905550506100e3565b600081519050610093816100cc565b92915050565b6000602082840312156100ab57600080fd5b60006100b984828501610084565b91505092915050565b6000819050919050565b6100d5816100c2565b81146100e057600080fd5b50565b6111f3806100f26000396000f3fe608060405234801561001057600080fd5b50600436106100ea5760003560e01c806353d051b41161008c5780637ec867e0116100665780637ec867e01461026157806395d89b411461027d578063a9059cbb1461029b578063dd62ed3e146102cb576100ea565b806353d051b4146101e35780636cf0166a1461021357806370a0823114610231576100ea565b806318160ddd116100c857806318160ddd1461015b57806323b872dd14610179578063313ce567146101a95780634ee22adf146101c7576100ea565b806304d2def8146100ef57806306fdde031461010d578063095ea7b31461012b575b600080fd5b6100f76102fb565b6040516101049190610fc9565b60405180910390f35b610115610338565b6040516101229190610fc9565b60405180910390f35b61014560048036038101906101409190610ee3565b610371565b6040516101529190610fae565b60405180910390f35b610163610463565b6040516101709190610feb565b60405180910390f35b610193600480360381019061018e9190610e94565b61046d565b6040516101a09190610fae565b60405180910390f35b6101b16107e8565b6040516101be9190611006565b60405180910390f35b6101e160048036038101906101dc9190610f1f565b6107ed565b005b6101fd60048036038101906101f89190610e94565b61085e565b60405161020a9190610fae565b60405180910390f35b61021b610a41565b6040516102289190610fc9565b60405180910390f35b61024b60048036038101906102469190610e2f565b610a7e565b6040516102589190610feb565b60405180910390f35b61027b60048036038101906102769190610f1f565b610ac6565b005b610285610b37565b6040516102929190610fc9565b60405180910390f35b6102b560048036038101906102b09190610ee3565b610b70565b6040516102c29190610fae565b60405180910390f35b6102e560048036038101906102e09190610e58565b610d52565b6040516102f29190610feb565b60405180910390f35b60606040518060400160405280600a81526020017f434841494e544f4b454e00000000000000000000000000000000000000000000815250905090565b6040518060400160405280600a81526020017f434841494e544f4b454e0000000000000000000000000000000000000000000081525081565b600081600160003373ffffffffffffffffffffffffffffffffffffffff1673ffffffffffffffffffffffffffffffffffffffff16815260200190815260200160002060008573ffffffffffffffffffffffffffffffffffffffff1673ffffffffffffffffffffffffffffffffffffffff168152602001908152602001600020819055508273ffffffffffffffffffffffffffffffffffffffff163373ffffffffffffffffffffffffffffffffffffffff167f8c5be1e5ebec7d5bd14f71427d1e84f3dd0314c0f7b2291e5b200ac8c7c3b925846040516104519190610feb565b60405180910390a36001905092915050565b6000600254905090565b60008060008573ffffffffffffffffffffffffffffffffffffffff1673ffffffffffffffffffffffffffffffffffffffff168152602001908152602001600020548211156104ba57600080fd5b600160008573ffffffffffffffffffffffffffffffffffffffff1673ffffffffffffffffffffffffffffffffffffffff16815260200190815260200160002060003373ffffffffffffffffffffffffffffffffffffffff1673ffffffffffffffffffffffffffffffffffffffff1681526020019081526020016000205482111561054357600080fd5b610594826000808773ffffffffffffffffffffffffffffffffffffffff1673ffffffffffffffffffffffffffffffffffffffff16815260200190815260200160002054610dd990919063ffffffff16565b6000808673ffffffffffffffffffffffffffffffffffffffff1673ffffffffffffffffffffffffffffffffffffffff1681526020019081526020016000208190555061066582600160008773ffffffffffffffffffffffffffffffffffffffff1673ffffffffffffffffffffffffffffffffffffffff16815260200190815260200160002060003373ffffffffffffffffffffffffffffffffffffffff1673ffffffffffffffffffffffffffffffffffffffff16815260200190815260200160002054610dd990919063ffffffff16565b600160008673ffffffffffffffffffffffffffffffffffffffff1673ffffffffffffffffffffffffffffffffffffffff16815260200190815260200160002060003373ffffffffffffffffffffffffffffffffffffffff1673ffffffffffffffffffffffffffffffffffffffff16815260200190815260200160002081905550610736826000808673ffffffffffffffffffffffffffffffffffffffff1673ffffffffffffffffffffffffffffffffffffffff16815260200190815260200160002054610def90919063ffffffff16565b6000808573ffffffffffffffffffffffffffffffffffffffff1673ffffffffffffffffffffffffffffffffffffffff168152602001908152602001600020819055508273ffffffffffffffffffffffffffffffffffffffff168473ffffffffffffffffffffffffffffffffffffffff167fddf252ad1be2c89b69c2b068fc378daa952ba7f163c4a11628f55a4df523b3ef846040516107d59190610feb565b60405180910390a3600190509392505050565b601281565b80600260008282546107ff919061103d565b92505081905550806000803373ffffffffffffffffffffffffffffffffffffffff1673ffffffffffffffffffffffffffffffffffffffff1681526020019081526020016000206000828254610854919061103d565b9250508190555050565b60008060008573ffffffffffffffffffffffffffffffffffffffff1673ffffffffffffffffffffffffffffffffffffffff168152602001908152602001600020548211156108ab57600080fd5b6108fc826000808773ffffffffffffffffffffffffffffffffffffffff1673ffffffffffffffffffffffffffffffffffffffff16815260200190815260200160002054610dd990919063ffffffff16565b6000808673ffffffffffffffffffffffffffffffffffffffff1673ffffffffffffffffffffffffffffffffffffffff1681526020019081526020016000208190555061098f826000808673ffffffffffffffffffffffffffffffffffffffff1673ffffffffffffffffffffffffffffffffffffffff16815260200190815260200160002054610def90919063ffffffff16565b6000808573ffffffffffffffffffffffffffffffffffffffff1673ffffffffffffffffffffffffffffffffffffffff168152602001908152602001600020819055508273ffffffffffffffffffffffffffffffffffffffff168473ffffffffffffffffffffffffffffffffffffffff167fddf252ad1be2c89b69c2b068fc378daa952ba7f163c4a11628f55a4df523b3ef84604051610a2e9190610feb565b60405180910390a3600190509392505050565b60606040518060400160405280600381526020017f4348540000000000000000000000000000000000000000000000000000000000815250905090565b60008060008373ffffffffffffffffffffffffffffffffffffffff1673ffffffffffffffffffffffffffffffffffffffff168152602001908152602001600020549050919050565b8060026000828254610ad89190611093565b92505081905550806000803373ffffffffffffffffffffffffffffffffffffffff1673ffffffffffffffffffffffffffffffffffffffff1681526020019081526020016000206000828254610b2d9190611093565b9250508190555050565b6040518060400160405280600381526020017f434854000000000000000000000000000000000000000000000000000000000081525081565b60008060003373ffffffffffffffffffffffffffffffffffffffff1673ffffffffffffffffffffffffffffffffffffffff16815260200190815260200160002054821115610bbd57600080fd5b610c0e826000803373ffffffffffffffffffffffffffffffffffffffff1673ffffffffffffffffffffffffffffffffffffffff16815260200190815260200160002054610dd990919063ffffffff16565b6000803373ffffffffffffffffffffffffffffffffffffffff1673ffffffffffffffffffffffffffffffffffffffff16815260200190815260200160002081905550610ca1826000808673ffffffffffffffffffffffffffffffffffffffff1673ffffffffffffffffffffffffffffffffffffffff16815260200190815260200160002054610def90919063ffffffff16565b6000808573ffffffffffffffffffffffffffffffffffffffff1673ffffffffffffffffffffffffffffffffffffffff168152602001908152602001600020819055508273ffffffffffffffffffffffffffffffffffffffff163373ffffffffffffffffffffffffffffffffffffffff167fddf252ad1be2c89b69c2b068fc378daa952ba7f163c4a11628f55a4df523b3ef84604051610d409190610feb565b60405180910390a36001905092915050565b6000600160008473ffffffffffffffffffffffffffffffffffffffff1673ffffffffffffffffffffffffffffffffffffffff16815260200190815260200160002060008373ffffffffffffffffffffffffffffffffffffffff1673ffffffffffffffffffffffffffffffffffffffff16815260200190815260200160002054905092915050565b60008183610de79190611093565b905092915050565b60008183610dfd919061103d565b905092915050565b600081359050610e148161118f565b92915050565b600081359050610e29816111a6565b92915050565b600060208284031215610e4157600080fd5b6000610e4f84828501610e05565b91505092915050565b60008060408385031215610e6b57600080fd5b6000610e7985828601610e05565b9250506020610e8a85828601610e05565b9150509250929050565b600080600060608486031215610ea957600080fd5b6000610eb786828701610e05565b9350506020610ec886828701610e05565b9250506040610ed986828701610e1a565b9150509250925092565b60008060408385031215610ef657600080fd5b6000610f0485828601610e05565b9250506020610f1585828601610e1a565b9150509250929050565b600060208284031215610f3157600080fd5b6000610f3f84828501610e1a565b91505092915050565b610f51816110d9565b82525050565b6000610f6282611021565b610f6c818561102c565b9350610f7c81856020860161111c565b610f858161117e565b840191505092915050565b610f9981611105565b82525050565b610fa88161110f565b82525050565b6000602082019050610fc36000830184610f48565b92915050565b60006020820190508181036000830152610fe38184610f57565b905092915050565b60006020820190506110006000830184610f90565b92915050565b600060208201905061101b6000830184610f9f565b92915050565b600081519050919050565b600082825260208201905092915050565b600061104882611105565b915061105383611105565b9250827fffffffffffffffffffffffffffffffffffffffffffffffffffffffffffffffff038211156110885761108761114f565b5b828201905092915050565b600061109e82611105565b91506110a983611105565b9250828210156110bc576110bb61114f565b5b828203905092915050565b60006110d2826110e5565b9050919050565b60008115159050919050565b600073ffffffffffffffffffffffffffffffffffffffff82169050919050565b6000819050919050565b600060ff82169050919050565b60005b8381101561113a57808201518184015260208101905061111f565b83811115611149576000848401525b50505050565b7f4e487b7100000000000000000000000000000000000000000000000000000000600052601160045260246000fd5b6000601f19601f8301169050919050565b611198816110c7565b81146111a357600080fd5b50565b6111af81611105565b81146111ba57600080fd5b5056fea26469706673582212208bffcda8801a8b93c0e067fcbd60efff66d5a08649884312b8dbf1539172b4f064736f6c63430008000033",
  "linkReferences": {},
  "deployedLinkReferences": {}
}